{
  "_format": "hh-sol-artifact-1",
  "contractName": "TangentEscrow",
  "sourceName": "contracts/TangentEscrow.sol",
  "abi": [
    {
      "inputs": [
        {
          "internalType": "contract IERC20",
          "name": "_tgt",
          "type": "address"
        },
        {
          "internalType": "address",
          "name": "_treasury",
          "type": "address"
        }
      ],
      "stateMutability": "nonpayable",
      "type": "constructor"
    },
    {
      "inputs": [],
      "name": "AccessControlBadConfirmation",
      "type": "error"
    },
    {
      "inputs": [
        {
          "internalType": "address",
          "name": "account",
          "type": "address"
        },
        {
          "internalType": "bytes32",
          "name": "neededRole",
          "type": "bytes32"
        }
      ],
      "name": "AccessControlUnauthorizedAccount",
      "type": "error"
    },
    {
      "anonymous": false,
      "inputs": [
        {
          "indexed": true,
          "internalType": "uint256",
          "name": "id",
          "type": "uint256"
        },
        {
          "indexed": false,
          "internalType": "uint256",
          "name": "amount",
          "type": "uint256"
        }
      ],
      "name": "BuyerDeposited",
      "type": "event"
    },
    {
      "anonymous": false,
      "inputs": [
        {
          "indexed": true,
          "internalType": "uint256",
          "name": "id",
          "type": "uint256"
        }
      ],
      "name": "Claimed",
      "type": "event"
    },
    {
      "anonymous": false,
      "inputs": [
        {
          "indexed": true,
          "internalType": "uint256",
          "name": "id",
          "type": "uint256"
        }
      ],
      "name": "Confirmed",
      "type": "event"
    },
    {
      "anonymous": false,
      "inputs": [
        {
          "indexed": true,
          "internalType": "uint256",
          "name": "id",
          "type": "uint256"
        }
      ],
      "name": "Defaulted",
      "type": "event"
    },
    {
      "anonymous": false,
      "inputs": [
        {
          "indexed": true,
          "internalType": "uint256",
          "name": "id",
          "type": "uint256"
        },
        {
          "indexed": false,
          "internalType": "bytes32",
          "name": "keyHash",
          "type": "bytes32"
        },
        {
          "indexed": false,
          "internalType": "uint64",
          "name": "finalDeadline",
          "type": "uint64"
        },
        {
          "indexed": false,
          "internalType": "uint256",
          "name": "supplierPayout",
          "type": "uint256"
        }
      ],
      "name": "DocsAcceptedKeyIssued",
      "type": "event"
    },
    {
      "anonymous": false,
      "inputs": [
        {
          "indexed": true,
          "internalType": "uint256",
          "name": "id",
          "type": "uint256"
        },
        {
          "indexed": false,
          "internalType": "uint256",
          "name": "amount",
          "type": "uint256"
        },
        {
          "indexed": false,
          "internalType": "address",
          "name": "payer",
          "type": "address"
        }
      ],
      "name": "FinalPaid",
      "type": "event"
    },
    {
      "anonymous": false,
      "inputs": [
        {
          "indexed": true,
          "internalType": "bytes32",
          "name": "role",
          "type": "bytes32"
        },
        {
          "indexed": true,
          "internalType": "bytes32",
          "name": "previousAdminRole",
          "type": "bytes32"
        },
        {
          "indexed": true,
          "internalType": "bytes32",
          "name": "newAdminRole",
          "type": "bytes32"
        }
      ],
      "name": "RoleAdminChanged",
      "type": "event"
    },
    {
      "anonymous": false,
      "inputs": [
        {
          "indexed": true,
          "internalType": "bytes32",
          "name": "role",
          "type": "bytes32"
        },
        {
          "indexed": true,
          "internalType": "address",
          "name": "account",
          "type": "address"
        },
        {
          "indexed": true,
          "internalType": "address",
          "name": "sender",
          "type": "address"
        }
      ],
      "name": "RoleGranted",
      "type": "event"
    },
    {
      "anonymous": false,
      "inputs": [
        {
          "indexed": true,
          "internalType": "bytes32",
          "name": "role",
          "type": "bytes32"
        },
        {
          "indexed": true,
          "internalType": "address",
          "name": "account",
          "type": "address"
        },
        {
          "indexed": true,
          "internalType": "address",
          "name": "sender",
          "type": "address"
        }
      ],
      "name": "RoleRevoked",
      "type": "event"
    },
    {
      "anonymous": false,
      "inputs": [
        {
          "indexed": true,
          "internalType": "uint256",
          "name": "id",
          "type": "uint256"
        },
        {
          "indexed": false,
          "internalType": "address",
          "name": "supplier",
          "type": "address"
        },
        {
          "indexed": false,
          "internalType": "address",
          "name": "buyer",
          "type": "address"
        },
        {
          "indexed": false,
          "internalType": "uint256",
          "name": "p1",
          "type": "uint256"
        }
      ],
      "name": "TradeCreated",
      "type": "event"
    },
    {
      "inputs": [],
      "name": "ADMIN_ROLE",
      "outputs": [
        {
          "internalType": "bytes32",
          "name": "",
          "type": "bytes32"
        }
      ],
      "stateMutability": "view",
      "type": "function"
    },
    {
      "inputs": [],
      "name": "DEFAULT_ADMIN_ROLE",
      "outputs": [
        {
          "internalType": "bytes32",
          "name": "",
          "type": "bytes32"
        }
      ],
      "stateMutability": "view",
      "type": "function"
    },
    {
      "inputs": [],
      "name": "TGT",
      "outputs": [
        {
          "internalType": "contract IERC20",
          "name": "",
          "type": "address"
        }
      ],
      "stateMutability": "view",
      "type": "function"
    },
    {
      "inputs": [
        {
          "internalType": "uint256",
          "name": "id",
          "type": "uint256"
        },
        {
          "internalType": "bytes32",
          "name": "keyHash",
          "type": "bytes32"
        },
        {
          "internalType": "uint64",
          "name": "finalDeadline",
          "type": "uint64"
        }
      ],
      "name": "acceptDocsAndIssueKey",
      "outputs": [],
      "stateMutability": "nonpayable",
      "type": "function"
    },
    {
      "inputs": [
        {
          "internalType": "uint256",
          "name": "id",
          "type": "uint256"
        },
        {
          "internalType": "uint256",
          "name": "amount",
          "type": "uint256"
        }
      ],
      "name": "buyerDeposit",
      "outputs": [],
      "stateMutability": "nonpayable",
      "type": "function"
    },
    {
      "inputs": [
        {
          "internalType": "uint256",
          "name": "id",
          "type": "uint256"
        },
        {
          "internalType": "string",
          "name": "keyPlain",
          "type": "string"
        }
      ],
      "name": "claimDocs",
      "outputs": [],
      "stateMutability": "nonpayable",
      "type": "function"
    },
    {
      "inputs": [
        {
          "internalType": "address",
          "name": "supplier",
          "type": "address"
        },
        {
          "internalType": "address",
          "name": "buyer",
          "type": "address"
        },
        {
          "internalType": "uint256",
          "name": "p1",
          "type": "uint256"
        },
        {
          "internalType": "uint16",
          "name": "depositPct",
          "type": "uint16"
        },
        {
          "internalType": "uint16",
          "name": "financePct",
          "type": "uint16"
        }
      ],
      "name": "createTrade",
      "outputs": [
        {
          "internalType": "uint256",
          "name": "id",
          "type": "uint256"
        }
      ],
      "stateMutability": "nonpayable",
      "type": "function"
    },
    {
      "inputs": [
        {
          "internalType": "bytes32",
          "name": "role",
          "type": "bytes32"
        }
      ],
      "name": "getRoleAdmin",
      "outputs": [
        {
          "internalType": "bytes32",
          "name": "",
          "type": "bytes32"
        }
      ],
      "stateMutability": "view",
      "type": "function"
    },
    {
      "inputs": [
        {
          "internalType": "bytes32",
          "name": "role",
          "type": "bytes32"
        },
        {
          "internalType": "address",
          "name": "account",
          "type": "address"
        }
      ],
      "name": "grantRole",
      "outputs": [],
      "stateMutability": "nonpayable",
      "type": "function"
    },
    {
      "inputs": [
        {
          "internalType": "bytes32",
          "name": "role",
          "type": "bytes32"
        },
        {
          "internalType": "address",
          "name": "account",
          "type": "address"
        }
      ],
      "name": "hasRole",
      "outputs": [
        {
          "internalType": "bool",
          "name": "",
          "type": "bool"
        }
      ],
      "stateMutability": "view",
      "type": "function"
    },
    {
      "inputs": [
        {
          "internalType": "uint256",
          "name": "id",
          "type": "uint256"
        }
      ],
      "name": "markDefault",
      "outputs": [],
      "stateMutability": "nonpayable",
      "type": "function"
    },
    {
      "inputs": [],
      "name": "nextTradeId",
      "outputs": [
        {
          "internalType": "uint256",
          "name": "",
          "type": "uint256"
        }
      ],
      "stateMutability": "view",
      "type": "function"
    },
    {
      "inputs": [
        {
          "internalType": "uint256",
          "name": "id",
          "type": "uint256"
        },
        {
          "internalType": "uint256",
          "name": "amount",
          "type": "uint256"
        }
      ],
      "name": "payFinal",
      "outputs": [],
      "stateMutability": "nonpayable",
      "type": "function"
    },
    {
      "inputs": [
        {
          "internalType": "bytes32",
          "name": "role",
          "type": "bytes32"
        },
        {
          "internalType": "address",
          "name": "callerConfirmation",
          "type": "address"
        }
      ],
      "name": "renounceRole",
      "outputs": [],
      "stateMutability": "nonpayable",
      "type": "function"
    },
    {
      "inputs": [
        {
          "internalType": "bytes32",
          "name": "role",
          "type": "bytes32"
        },
        {
          "internalType": "address",
          "name": "account",
          "type": "address"
        }
      ],
      "name": "revokeRole",
      "outputs": [],
      "stateMutability": "nonpayable",
      "type": "function"
    },
    {
      "inputs": [
        {
          "internalType": "uint256",
          "name": "id",
          "type": "uint256"
        },
        {
          "internalType": "address",
          "name": "dsBuyer",
          "type": "address"
        }
      ],
      "name": "setDownstream",
      "outputs": [],
      "stateMutability": "nonpayable",
      "type": "function"
    },
    {
      "inputs": [
        {
          "internalType": "bytes4",
          "name": "interfaceId",
          "type": "bytes4"
        }
      ],
      "name": "supportsInterface",
      "outputs": [
        {
          "internalType": "bool",
          "name": "",
          "type": "bool"
        }
      ],
      "stateMutability": "view",
      "type": "function"
    },
    {
      "inputs": [
        {
          "internalType": "uint256",
          "name": "",
          "type": "uint256"
        }
      ],
      "name": "trades",
      "outputs": [
        {
          "internalType": "address",
          "name": "supplier",
          "type": "address"
        },
        {
          "internalType": "address",
          "name": "buyer",
          "type": "address"
        },
        {
          "internalType": "address",
          "name": "downstreamBuyer",
          "type": "address"
        },
        {
          "internalType": "uint256",
          "name": "p1",
          "type": "uint256"
        },
        {
          "internalType": "uint16",
          "name": "depositPct",
          "type": "uint16"
        },
        {
          "internalType": "uint16",
          "name": "financePct",
          "type": "uint16"
        },
        {
          "internalType": "uint256",
          "name": "depositPaid",
          "type": "uint256"
        },
        {
          "internalType": "uint256",
          "name": "finalPaid",
          "type": "uint256"
        },
        {
          "internalType": "bytes32",
          "name": "keyHash",
          "type": "bytes32"
        },
        {
          "internalType": "uint64",
          "name": "finalDeadline",
          "type": "uint64"
        },
        {
          "internalType": "enum TangentEscrow.Status",
          "name": "status",
          "type": "uint8"
        }
      ],
      "stateMutability": "view",
      "type": "function"
    },
    {
      "inputs": [],
      "name": "treasury",
      "outputs": [
        {
          "internalType": "address",
          "name": "",
          "type": "address"
        }
      ],
      "stateMutability": "view",
      "type": "function"
    }
  ],
  "bytecode": "0x60c06040523480156200001157600080fd5b506040516200195238038062001952833981016040819052620000349162000152565b6001600160a01b03808316608052811660a052620000546000336200008a565b50620000817fa49807205ce4d355092ef5a8a18f56e8913cf4a201fbe287825b095693c21775336200008a565b50505062000191565b6000828152602081815260408083206001600160a01b038516845290915281205460ff166200012f576000838152602081815260408083206001600160a01b03861684529091529020805460ff19166001179055620000e63390565b6001600160a01b0316826001600160a01b0316847f2f8788117e7eff1d82e926ec794901d17c78024a50270940304540a733656f0d60405160405180910390a450600162000133565b5060005b92915050565b6001600160a01b03811681146200014f57600080fd5b50565b600080604083850312156200016657600080fd5b8251620001738162000139565b6020840151909250620001868162000139565b809150509250929050565b60805160a051611778620001da60003960008181610285015261093e01526000818161035c0152818161047c015281816105890152818161096d015261103901526117786000f3fe608060405234801561001057600080fd5b50600436106101215760003560e01c806375b238fc116100ad578063a217fddf11610071578063a217fddf14610316578063cc980bc21461031e578063d547741f14610331578063e1d927c814610344578063fcbc56f41461035757600080fd5b806375b238fc146102bf5780637bad12d5146102d4578063813ad083146102e7578063858989a3146102f057806391d148541461030357600080fd5b806328ff1057116100f457806328ff1057146102345780632f2ff15d1461024757806336568abe1461025a578063396c79851461026d57806361d027b31461028057600080fd5b806301ffc9a714610126578063167dbaaf1461014e5780631e6c598e14610163578063248a9ca314610203575b600080fd5b610139610134366004611392565b61037e565b60405190151581526020015b60405180910390f35b61016161015c3660046113c3565b6103b5565b005b6101ec610171366004611409565b60026020819052600091825260409091208054600182015492820154600383015460048401546005850154600686015460078701546008909701546001600160a01b03968716988716979590961695939461ffff8085169562010000909504169367ffffffffffffffff81169060ff600160401b909104168b565b6040516101459b9a99989796959493929190611438565b610226610211366004611409565b60009081526020819052604090206001015490565b604051908152602001610145565b6101616102423660046114ea565b610700565b6101616102553660046114ea565b61074c565b6101616102683660046114ea565b610777565b61016161027b366004611516565b6107af565b6102a77f000000000000000000000000000000000000000000000000000000000000000081565b6040516001600160a01b039091168152602001610145565b61022660008051602061172383398151915281565b6102266102e236600461154a565b610abd565b61022660015481565b6101616102fe3660046115a8565b610d91565b6101396103113660046114ea565b610f14565b610226600081565b61016161032c366004611516565b610f3d565b61016161033f3660046114ea565b61113f565b610161610352366004611409565b611164565b6102a77f000000000000000000000000000000000000000000000000000000000000000081565b60006001600160e01b03198216637965db0b60e01b14806103af57506301ffc9a760e01b6001600160e01b03198316145b92915050565b6000805160206117238339815191526103cd8161124b565b6000848152600260208190526040909120906008820154600160401b900460ff1660078111156103ff576103ff611422565b148015610410575060008160050154115b61044e5760405162461bcd60e51b815260206004820152600a6024820152691b9bc819195c1bdcda5d60b21b60448201526064015b60405180910390fd5b8054600582015460405163a9059cbb60e01b81526001600160a01b03928316600482015260248101919091527f00000000000000000000000000000000000000000000000000000000000000009091169063a9059cbb906044016020604051808303816000875af11580156104c7573d6000803e3d6000fd5b505050506040513d601f19601f820116820180604052508101906104eb9190611624565b6105375760405162461bcd60e51b815260206004820152601b60248201527f657363726f772d3e737570706c69657220333025206661696c656400000000006044820152606401610445565b6004810154600382015460009160649161055b9162010000900461ffff169061165c565b6105659190611673565b82546040516001600160a01b039182166024820152604481018390529192506000917f00000000000000000000000000000000000000000000000000000000000000009091169060640160408051601f198184030181529181526020820180516001600160e01b03166340c10f1960e01b179052516105e49190611695565b6000604051808303816000865af19150503d8060008114610621576040519150601f19603f3d011682016040523d82523d6000602084013e610626565b606091505b50509050806106695760405162461bcd60e51b815260206004820152600f60248201526e1b5a5b9d080dcc094819985a5b1959608a1b6044820152606401610445565b60078301869055600883018054600160421b68ffffffffffffffffff1990911667ffffffffffffffff881617179055600583015487907f7811ff1ceae72f4cb52d4b985d14c2528e87f51741e157a50b02500307d4db2590889088906106d09087906116c4565b6040805193845267ffffffffffffffff90921660208401529082015260600160405180910390a250505050505050565b6000805160206117238339815191526107188161124b565b50600091825260026020819052604090922090910180546001600160a01b0319166001600160a01b03909216919091179055565b6000828152602081905260409020600101546107678161124b565b6107718383611258565b50505050565b6001600160a01b03811633146107a05760405163334bd91960e11b815260040160405180910390fd5b6107aa82826112ea565b505050565b600082815260026020526040902060018101546001600160a01b03163314806107e4575060028101546001600160a01b031633145b6108285760405162461bcd60e51b81526020600482015260156024820152746f6e6c792062757965722f646f776e73747265616d60581b6044820152606401610445565b60046008820154600160401b900460ff16600781111561084a5761084a611422565b1480610875575060056008820154600160401b900460ff16600781111561087357610873611422565b145b6108ae5760405162461bcd60e51b815260206004820152600a6024820152696261642073746174757360b01b6044820152606401610445565b600481015460038201546000916064916108d29162010000900461ffff169061165c565b6108dc9190611673565b90508083146109215760405162461bcd60e51b81526020600482015260116024820152706d7573742062652065786163742037302560781b6044820152606401610445565b6040516323b872dd60e01b81523360048201526001600160a01b037f000000000000000000000000000000000000000000000000000000000000000081166024830152604482018590527f000000000000000000000000000000000000000000000000000000000000000016906323b872dd906064016020604051808303816000875af11580156109b6573d6000803e3d6000fd5b505050506040513d601f19601f820116820180604052508101906109da9190611624565b610a195760405162461bcd60e51b815260206004820152601060248201526f1c185e48199a5b985b0819985a5b195960821b6044820152606401610445565b6006820183905560056008830154600160401b900460ff166007811115610a4257610a42611422565b03610a615760088201805460ff60401b1916600360411b179055610a7c565b60088201805460ff60401b1916680500000000000000001790555b6040805184815233602082015285917f3377fc90609bd2203d94b98973e43fa87a6340396cf596cf0600bfae0816873791015b60405180910390a250505050565b6000600080516020611723833981519152610ad78161124b565b6001600160a01b03871615801590610af757506001600160a01b03861615155b610b315760405162461bcd60e51b815260206004820152600b60248201526a626164207061727469657360a81b6044820152606401610445565b610b3b83856116d7565b61ffff16606414610b785760405162461bcd60e51b8152602060048201526007602482015266189859081c18dd60ca1b6044820152606401610445565b600160008154610b87906116f9565b918290555060408051610160810182526001600160a01b03808b1682528916602082015260009181018290526060810188905261ffff8088166080830152861660a082015260c0810182905260e081018290526101008101829052610120810191909152909250610140810160019052600083815260026020818152604092839020845181546001600160a01b039182166001600160a01b03199182161783559286015160018301805491831691851691909117905593850151928101805493909416929091169190911790915560608201516003820155608082015160048201805460a085015161ffff908116620100000263ffffffff1990921693169290921791909117905560c0820151600582015560e0820151600682015561010082015160078083019190915561012083015160088301805467ffffffffffffffff90921667ffffffffffffffff1983168117825561014086015193919268ffffffffffffffffff19161790600160401b908490811115610d0857610d08611422565b021790555050604080516001600160a01b03808b168252891660208201529081018790528391507f7db1856a9087992b8c7c25a7f1622a9b144ff325953aee6bbb6d38d762c189f69060600160405180910390a260405182907f5745b04f0487ed3df77aef07f8203e42e3dda220117bb702fbb3fd48fb148d6190600090a25095945050505050565b600083815260026020526040902060018101546001600160a01b0316331480610dc6575060028101546001600160a01b031633145b610e0a5760405162461bcd60e51b81526020600482015260156024820152746f6e6c792062757965722f646f776e73747265616d60581b6044820152606401610445565b6007810154610e445760405162461bcd60e51b81526020600482015260066024820152656e6f206b657960d01b6044820152606401610445565b80600701548383604051602001610e5c929190611712565b6040516020818303038152906040528051906020012014610ea95760405162461bcd60e51b8152602060048201526007602482015266626164206b657960c81b6044820152606401610445565b600681015415610ecd5760088101805460ff60401b1916600360411b179055610ee3565b60088101805460ff60401b1916600160421b1790555b60405184907f7a355715549cfe7c1cba26304350343fbddc4b4f72d3ce3e7c27117dd20b5cb890600090a250505050565b6000918252602082815260408084206001600160a01b0393909316845291905290205460ff1690565b600082815260026020526040902060016008820154600160401b900460ff166007811115610f6d57610f6d611422565b14610faa5760405162461bcd60e51b815260206004820152600d60248201526c1b9bdd0818dbdb999a5c9b5959609a1b6044820152606401610445565b60048101546003820154600091606491610fc89161ffff169061165c565b610fd29190611673565b90508083146110175760405162461bcd60e51b81526020600482015260116024820152706d7573742062652065786163742033302560781b6044820152606401610445565b6040516323b872dd60e01b8152336004820152306024820152604481018490527f00000000000000000000000000000000000000000000000000000000000000006001600160a01b0316906323b872dd906064016020604051808303816000875af115801561108a573d6000803e3d6000fd5b505050506040513d601f19601f820116820180604052508101906110ae9190611624565b6110ec5760405162461bcd60e51b815260206004820152600f60248201526e1d1c985b9cd9995c8819985a5b1959608a1b6044820152606401610445565b6005820183905560088201805460ff60401b19166802000000000000000017905560405183815284907fb6551eab5c9e624d74922adeedb1651d10c9366a370e1de2cdb25f4d1935496290602001610aaf565b60008281526020819052604090206001015461115a8161124b565b61077183836112ea565b60008051602061172383398151915261117c8161124b565b6000828152600260205260409020600881015467ffffffffffffffff16421180156111c7575060066008820154600160401b900460ff1660078111156111c4576111c4611422565b14155b6112015760405162461bcd60e51b815260206004820152600b60248201526a6e6f74206f76657264756560a81b6044820152606401610445565b60088101805460ff60401b19166807000000000000000017905560405183907f1d75e3348506adf1891a585d582e37bfdd45f92284df8a0a8a8f20e428f45c1b90600090a2505050565b6112558133611355565b50565b60006112648383610f14565b6112e2576000838152602081815260408083206001600160a01b03861684529091529020805460ff1916600117905561129a3390565b6001600160a01b0316826001600160a01b0316847f2f8788117e7eff1d82e926ec794901d17c78024a50270940304540a733656f0d60405160405180910390a45060016103af565b5060006103af565b60006112f68383610f14565b156112e2576000838152602081815260408083206001600160a01b0386168085529252808320805460ff1916905551339286917ff6391f5c32d9c69d2a47ea670b442974b53935d1edc7fd64eb21e047a839171b9190a45060016103af565b61135f8282610f14565b61138e5760405163e2517d3f60e01b81526001600160a01b038216600482015260248101839052604401610445565b5050565b6000602082840312156113a457600080fd5b81356001600160e01b0319811681146113bc57600080fd5b9392505050565b6000806000606084860312156113d857600080fd5b8335925060208401359150604084013567ffffffffffffffff811681146113fe57600080fd5b809150509250925092565b60006020828403121561141b57600080fd5b5035919050565b634e487b7160e01b600052602160045260246000fd5b6001600160a01b038c811682528b811660208301528a1660408201526060810189905261ffff8881166080830152871660a082015260c0810186905260e08101859052610100810184905267ffffffffffffffff83166101208201526101608101600883106114b757634e487b7160e01b600052602160045260246000fd5b826101408301529c9b505050505050505050505050565b80356001600160a01b03811681146114e557600080fd5b919050565b600080604083850312156114fd57600080fd5b8235915061150d602084016114ce565b90509250929050565b6000806040838503121561152957600080fd5b50508035926020909101359150565b803561ffff811681146114e557600080fd5b600080600080600060a0868803121561156257600080fd5b61156b866114ce565b9450611579602087016114ce565b93506040860135925061158e60608701611538565b915061159c60808701611538565b90509295509295909350565b6000806000604084860312156115bd57600080fd5b83359250602084013567ffffffffffffffff808211156115dc57600080fd5b818601915086601f8301126115f057600080fd5b8135818111156115ff57600080fd5b87602082850101111561161157600080fd5b6020830194508093505050509250925092565b60006020828403121561163657600080fd5b815180151581146113bc57600080fd5b634e487b7160e01b600052601160045260246000fd5b80820281158282048414176103af576103af611646565b60008261169057634e487b7160e01b600052601260045260246000fd5b500490565b6000825160005b818110156116b6576020818601810151858301520161169c565b506000920191825250919050565b808201808211156103af576103af611646565b61ffff8181168382160190808211156116f2576116f2611646565b5092915050565b60006001820161170b5761170b611646565b5060010190565b818382376000910190815291905056fea49807205ce4d355092ef5a8a18f56e8913cf4a201fbe287825b095693c21775a2646970667358221220f0af409fbf671faacf7ecfdfa7dab8387575aebbb9b262aaba867594c7b187ee64736f6c63430008140033",
  "linkReferences": {},
  "deployedLinkReferences": {}
}