{"contracts/TangentEscrow.sol":{"TangentEscrow":{"abi":[{"inputs":[{"internalType":"contract IERC20","name":"_tgt","type":"address"},{"internalType":"address","name":"_treasury","type":"address"}],"stateMutability":"nonpayable","type":"constructor"},{"inputs":[],"name":"AccessControlBadConfirmation","type":"error"},{"inputs":[{"internalType":"address","name":"account","type":"address"},{"internalType":"bytes32","name":"neededRole","type":"bytes32"}],"name":"AccessControlUnauthorizedAccount","type":"error"},{"anonymous":false,"inputs":[{"indexed":true,"internalType":"uint256","name":"id","type":"uint256"},{"indexed":false,"internalType":"uint256","name":"amount","type":"uint256"}],"name":"BuyerDeposited","type":"event"},{"anonymous":false,"inputs":[{"indexed":true,"internalType":"uint256","name":"id","type":"uint256"}],"name":"Claimed","type":"event"},{"anonymous":false,"inputs":[{"indexed":true,"internalType":"uint256","name":"id","type":"uint256"}],"name":"Confirmed","type":"event"},{"anonymous":false,"inputs":[{"indexed":true,"internalType":"uint256","name":"id","type":"uint256"}],"name":"Defaulted","type":"event"},{"anonymous":false,"inputs":[{"indexed":true,"internalType":"uint256","name":"id","type":"uint256"},{"indexed":false,"internalType":"bytes32","name":"keyHash","type":"bytes32"},{"indexed":false,"internalType":"uint64","name":"finalDeadline","type":"uint64"},{"indexed":false,"internalType":"uint256","name":"supplierPayout","type":"uint256"}],"name":"DocsAcceptedKeyIssued","type":"event"},{"anonymous":false,"inputs":[{"indexed":true,"internalType":"uint256","name":"id","type":"uint256"},{"indexed":false,"internalType":"uint256","name":"amount","type":"uint256"},{"indexed":false,"internalType":"address","name":"payer","type":"address"}],"name":"FinalPaid","type":"event"},{"anonymous":false,"inputs":[{"indexed":true,"internalType":"bytes32","name":"role","type":"bytes32"},{"indexed":true,"internalType":"bytes32","name":"previousAdminRole","type":"bytes32"},{"indexed":true,"internalType":"bytes32","name":"newAdminRole","type":"bytes32"}],"name":"RoleAdminChanged","type":"event"},{"anonymous":false,"inputs":[{"indexed":true,"internalType":"bytes32","name":"role","type":"bytes32"},{"indexed":true,"internalType":"address","name":"account","type":"address"},{"indexed":true,"internalType":"address","name":"sender","type":"address"}],"name":"RoleGranted","type":"event"},{"anonymous":false,"inputs":[{"indexed":true,"internalType":"bytes32","name":"role","type":"bytes32"},{"indexed":true,"internalType":"address","name":"account","type":"address"},{"indexed":true,"internalType":"address","name":"sender","type":"address"}],"name":"RoleRevoked","type":"event"},{"anonymous":false,"inputs":[{"indexed":true,"internalType":"uint256","name":"id","type":"uint256"},{"indexed":false,"internalType":"address","name":"supplier","type":"address"},{"indexed":false,"internalType":"address","name":"buyer","type":"address"},{"indexed":false,"internalType":"uint256","name":"p1","type":"uint256"}],"name":"TradeCreated","type":"event"},{"inputs":[],"name":"ADMIN_ROLE","outputs":[{"internalType":"bytes32","name":"","type":"bytes32"}],"stateMutability":"view","type":"function"},{"inputs":[],"name":"DEFAULT_ADMIN_ROLE","outputs":[{"internalType":"bytes32","name":"","type":"bytes32"}],"stateMutability":"view","type":"function"},{"inputs":[],"name":"TGT","outputs":[{"internalType":"contract IERC20","name":"","type":"address"}],"stateMutability":"view","type":"function"},{"inputs":[{"internalType":"uint256","name":"id","type":"uint256"},{"internalType":"bytes32","name":"keyHash","type":"bytes32"},{"internalType":"uint64","name":"finalDeadline","type":"uint64"}],"name":"acceptDocsAndIssueKey","outputs":[],"stateMutability":"nonpayable","type":"function"},{"inputs":[{"internalType":"uint256","name":"id","type":"uint256"},{"internalType":"uint256","name":"amount","type":"uint256"}],"name":"buyerDeposit","outputs":[],"stateMutability":"nonpayable","type":"function"},{"inputs":[{"internalType":"uint256","name":"id","type":"uint256"},{"internalType":"string","name":"keyPlain","type":"string"}],"name":"claimDocs","outputs":[],"stateMutability":"nonpayable","type":"function"},{"inputs":[{"internalType":"address","name":"supplier","type":"address"},{"internalType":"address","name":"buyer","type":"address"},{"internalType":"uint256","name":"p1","type":"uint256"},{"internalType":"uint16","name":"depositPct","type":"uint16"},{"internalType":"uint16","name":"financePct","type":"uint16"}],"name":"createTrade","outputs":[{"internalType":"uint256","name":"id","type":"uint256"}],"stateMutability":"nonpayable","type":"function"},{"inputs":[{"internalType":"bytes32","name":"role","type":"bytes32"}],"name":"getRoleAdmin","outputs":[{"internalType":"bytes32","name":"","type":"bytes32"}],"stateMutability":"view","type":"function"},{"inputs":[{"internalType":"bytes32","name":"role","type":"bytes32"},{"internalType":"address","name":"account","type":"address"}],"name":"grantRole","outputs":[],"stateMutability":"nonpayable","type":"function"},{"inputs":[{"internalType":"bytes32","name":"role","type":"bytes32"},{"internalType":"address","name":"account","type":"address"}],"name":"hasRole","outputs":[{"internalType":"bool","name":"","type":"bool"}],"stateMutability":"view","type":"function"},{"inputs":[{"internalType":"uint256","name":"id","type":"uint256"}],"name":"markDefault","outputs":[],"stateMutability":"nonpayable","type":"function"},{"inputs":[],"name":"nextTradeId","outputs":[{"internalType":"uint256","name":"","type":"uint256"}],"stateMutability":"view","type":"function"},{"inputs":[{"internalType":"uint256","name":"id","type":"uint256"},{"internalType":"uint256","name":"amount","type":"uint256"}],"name":"payFinal","outputs":[],"stateMutability":"nonpayable","type":"function"},{"inputs":[{"internalType":"bytes32","name":"role","type":"bytes32"},{"internalType":"address","name":"callerConfirmation","type":"address"}],"name":"renounceRole","outputs":[],"stateMutability":"nonpayable","type":"function"},{"inputs":[{"internalType":"bytes32","name":"role","type":"bytes32"},{"internalType":"address","name":"account","type":"address"}],"name":"revokeRole","outputs":[],"stateMutability":"nonpayable","type":"function"},{"inputs":[{"internalType":"uint256","name":"id","type":"uint256"},{"internalType":"address","name":"dsBuyer","type":"address"}],"name":"setDownstream","outputs":[],"stateMutability":"nonpayable","type":"function"},{"inputs":[{"internalType":"bytes4","name":"interfaceId","type":"bytes4"}],"name":"supportsInterface","outputs":[{"internalType":"bool","name":"","type":"bool"}],"stateMutability":"view","type":"function"},{"inputs":[{"internalType":"uint256","name":"","type":"uint256"}],"name":"trades","outputs":[{"internalType":"address","name":"supplier","type":"address"},{"internalType":"address","name":"buyer","type":"address"},{"internalType":"address","name":"downstreamBuyer","type":"address"},{"internalType":"uint256","name":"p1","type":"uint256"},{"internalType":"uint16","name":"depositPct","type":"uint16"},{"internalType":"uint16","name":"financePct","type":"uint16"},{"internalType":"uint256","name":"depositPaid","type":"uint256"},{"internalType":"uint256","name":"finalPaid","type":"uint256"},{"internalType":"bytes32","name":"keyHash","type":"bytes32"},{"internalType":"uint64","name":"finalDeadline","type":"uint64"},{"internalType":"enum TangentEscrow.Status","name":"status","type":"uint8"}],"stateMutability":"view","type":"function"},{"inputs":[],"name":"treasury","outputs":[{"internalType":"address","name":"","type":"address"}],"stateMutability":"view","type":"function"}],"evm":{"bytecode":{"linkReferences":{},"object":"60c06040523480156200001157600080fd5b506040516200195238038062001952833981016040819052620000349162000152565b6001600160a01b03808316608052811660a052620000546000336200008a565b50620000817fa49807205ce4d355092ef5a8a18f56e8913cf4a201fbe287825b095693c21775336200008a565b50505062000191565b6000828152602081815260408083206001600160a01b038516845290915281205460ff166200012f576000838152602081815260408083206001600160a01b03861684529091529020805460ff19166001179055620000e63390565b6001600160a01b0316826001600160a01b0316847f2f8788117e7eff1d82e926ec794901d17c78024a50270940304540a733656f0d60405160405180910390a450600162000133565b5060005b92915050565b6001600160a01b03811681146200014f57600080fd5b50565b600080604083850312156200016657600080fd5b8251620001738162000139565b6020840151909250620001868162000139565b809150509250929050565b60805160a051611778620001da60003960008181610285015261093e01526000818161035c0152818161047c015281816105890152818161096d015261103901526117786000f3fe608060405234801561001057600080fd5b50600436106101215760003560e01c806375b238fc116100ad578063a217fddf11610071578063a217fddf14610316578063cc980bc21461031e578063d547741f14610331578063e1d927c814610344578063fcbc56f41461035757600080fd5b806375b238fc146102bf5780637bad12d5146102d4578063813ad083146102e7578063858989a3146102f057806391d148541461030357600080fd5b806328ff1057116100f457806328ff1057146102345780632f2ff15d1461024757806336568abe1461025a578063396c79851461026d57806361d027b31461028057600080fd5b806301ffc9a714610126578063167dbaaf1461014e5780631e6c598e14610163578063248a9ca314610203575b600080fd5b610139610134366004611392565b61037e565b60405190151581526020015b60405180910390f35b61016161015c3660046113c3565b6103b5565b005b6101ec610171366004611409565b60026020819052600091825260409091208054600182015492820154600383015460048401546005850154600686015460078701546008909701546001600160a01b03968716988716979590961695939461ffff8085169562010000909504169367ffffffffffffffff81169060ff600160401b909104168b565b6040516101459b9a99989796959493929190611438565b610226610211366004611409565b60009081526020819052604090206001015490565b604051908152602001610145565b6101616102423660046114ea565b610700565b6101616102553660046114ea565b61074c565b6101616102683660046114ea565b610777565b61016161027b366004611516565b6107af565b6102a77f000000000000000000000000000000000000000000000000000000000000000081565b6040516001600160a01b039091168152602001610145565b61022660008051602061172383398151915281565b6102266102e236600461154a565b610abd565b61022660015481565b6101616102fe3660046115a8565b610d91565b6101396103113660046114ea565b610f14565b610226600081565b61016161032c366004611516565b610f3d565b61016161033f3660046114ea565b61113f565b610161610352366004611409565b611164565b6102a77f000000000000000000000000000000000000000000000000000000000000000081565b60006001600160e01b03198216637965db0b60e01b14806103af57506301ffc9a760e01b6001600160e01b03198316145b92915050565b6000805160206117238339815191526103cd8161124b565b6000848152600260208190526040909120906008820154600160401b900460ff1660078111156103ff576103ff611422565b148015610410575060008160050154115b61044e5760405162461bcd60e51b815260206004820152600a6024820152691b9bc819195c1bdcda5d60b21b60448201526064015b60405180910390fd5b8054600582015460405163a9059cbb60e01b81526001600160a01b03928316600482015260248101919091527f00000000000000000000000000000000000000000000000000000000000000009091169063a9059cbb906044016020604051808303816000875af11580156104c7573d6000803e3d6000fd5b505050506040513d601f19601f820116820180604052508101906104eb9190611624565b6105375760405162461bcd60e51b815260206004820152601b60248201527f657363726f772d3e737570706c69657220333025206661696c656400000000006044820152606401610445565b6004810154600382015460009160649161055b9162010000900461ffff169061165c565b6105659190611673565b82546040516001600160a01b039182166024820152604481018390529192506000917f00000000000000000000000000000000000000000000000000000000000000009091169060640160408051601f198184030181529181526020820180516001600160e01b03166340c10f1960e01b179052516105e49190611695565b6000604051808303816000865af19150503d8060008114610621576040519150601f19603f3d011682016040523d82523d6000602084013e610626565b606091505b50509050806106695760405162461bcd60e51b815260206004820152600f60248201526e1b5a5b9d080dcc094819985a5b1959608a1b6044820152606401610445565b60078301869055600883018054600160421b68ffffffffffffffffff1990911667ffffffffffffffff881617179055600583015487907f7811ff1ceae72f4cb52d4b985d14c2528e87f51741e157a50b02500307d4db2590889088906106d09087906116c4565b6040805193845267ffffffffffffffff90921660208401529082015260600160405180910390a250505050505050565b6000805160206117238339815191526107188161124b565b50600091825260026020819052604090922090910180546001600160a01b0319166001600160a01b03909216919091179055565b6000828152602081905260409020600101546107678161124b565b6107718383611258565b50505050565b6001600160a01b03811633146107a05760405163334bd91960e11b815260040160405180910390fd5b6107aa82826112ea565b505050565b600082815260026020526040902060018101546001600160a01b03163314806107e4575060028101546001600160a01b031633145b6108285760405162461bcd60e51b81526020600482015260156024820152746f6e6c792062757965722f646f776e73747265616d60581b6044820152606401610445565b60046008820154600160401b900460ff16600781111561084a5761084a611422565b1480610875575060056008820154600160401b900460ff16600781111561087357610873611422565b145b6108ae5760405162461bcd60e51b815260206004820152600a6024820152696261642073746174757360b01b6044820152606401610445565b600481015460038201546000916064916108d29162010000900461ffff169061165c565b6108dc9190611673565b90508083146109215760405162461bcd60e51b81526020600482015260116024820152706d7573742062652065786163742037302560781b6044820152606401610445565b6040516323b872dd60e01b81523360048201526001600160a01b037f000000000000000000000000000000000000000000000000000000000000000081166024830152604482018590527f000000000000000000000000000000000000000000000000000000000000000016906323b872dd906064016020604051808303816000875af11580156109b6573d6000803e3d6000fd5b505050506040513d601f19601f820116820180604052508101906109da9190611624565b610a195760405162461bcd60e51b815260206004820152601060248201526f1c185e48199a5b985b0819985a5b195960821b6044820152606401610445565b6006820183905560056008830154600160401b900460ff166007811115610a4257610a42611422565b03610a615760088201805460ff60401b1916600360411b179055610a7c565b60088201805460ff60401b1916680500000000000000001790555b6040805184815233602082015285917f3377fc90609bd2203d94b98973e43fa87a6340396cf596cf0600bfae0816873791015b60405180910390a250505050565b6000600080516020611723833981519152610ad78161124b565b6001600160a01b03871615801590610af757506001600160a01b03861615155b610b315760405162461bcd60e51b815260206004820152600b60248201526a626164207061727469657360a81b6044820152606401610445565b610b3b83856116d7565b61ffff16606414610b785760405162461bcd60e51b8152602060048201526007602482015266189859081c18dd60ca1b6044820152606401610445565b600160008154610b87906116f9565b918290555060408051610160810182526001600160a01b03808b1682528916602082015260009181018290526060810188905261ffff8088166080830152861660a082015260c0810182905260e081018290526101008101829052610120810191909152909250610140810160019052600083815260026020818152604092839020845181546001600160a01b039182166001600160a01b03199182161783559286015160018301805491831691851691909117905593850151928101805493909416929091169190911790915560608201516003820155608082015160048201805460a085015161ffff908116620100000263ffffffff1990921693169290921791909117905560c0820151600582015560e0820151600682015561010082015160078083019190915561012083015160088301805467ffffffffffffffff90921667ffffffffffffffff1983168117825561014086015193919268ffffffffffffffffff19161790600160401b908490811115610d0857610d08611422565b021790555050604080516001600160a01b03808b168252891660208201529081018790528391507f7db1856a9087992b8c7c25a7f1622a9b144ff325953aee6bbb6d38d762c189f69060600160405180910390a260405182907f5745b04f0487ed3df77aef07f8203e42e3dda220117bb702fbb3fd48fb148d6190600090a25095945050505050565b600083815260026020526040902060018101546001600160a01b0316331480610dc6575060028101546001600160a01b031633145b610e0a5760405162461bcd60e51b81526020600482015260156024820152746f6e6c792062757965722f646f776e73747265616d60581b6044820152606401610445565b6007810154610e445760405162461bcd60e51b81526020600482015260066024820152656e6f206b657960d01b6044820152606401610445565b80600701548383604051602001610e5c929190611712565b6040516020818303038152906040528051906020012014610ea95760405162461bcd60e51b8152602060048201526007602482015266626164206b657960c81b6044820152606401610445565b600681015415610ecd5760088101805460ff60401b1916600360411b179055610ee3565b60088101805460ff60401b1916600160421b1790555b60405184907f7a355715549cfe7c1cba26304350343fbddc4b4f72d3ce3e7c27117dd20b5cb890600090a250505050565b6000918252602082815260408084206001600160a01b0393909316845291905290205460ff1690565b600082815260026020526040902060016008820154600160401b900460ff166007811115610f6d57610f6d611422565b14610faa5760405162461bcd60e51b815260206004820152600d60248201526c1b9bdd0818dbdb999a5c9b5959609a1b6044820152606401610445565b60048101546003820154600091606491610fc89161ffff169061165c565b610fd29190611673565b90508083146110175760405162461bcd60e51b81526020600482015260116024820152706d7573742062652065786163742033302560781b6044820152606401610445565b6040516323b872dd60e01b8152336004820152306024820152604481018490527f00000000000000000000000000000000000000000000000000000000000000006001600160a01b0316906323b872dd906064016020604051808303816000875af115801561108a573d6000803e3d6000fd5b505050506040513d601f19601f820116820180604052508101906110ae9190611624565b6110ec5760405162461bcd60e51b815260206004820152600f60248201526e1d1c985b9cd9995c8819985a5b1959608a1b6044820152606401610445565b6005820183905560088201805460ff60401b19166802000000000000000017905560405183815284907fb6551eab5c9e624d74922adeedb1651d10c9366a370e1de2cdb25f4d1935496290602001610aaf565b60008281526020819052604090206001015461115a8161124b565b61077183836112ea565b60008051602061172383398151915261117c8161124b565b6000828152600260205260409020600881015467ffffffffffffffff16421180156111c7575060066008820154600160401b900460ff1660078111156111c4576111c4611422565b14155b6112015760405162461bcd60e51b815260206004820152600b60248201526a6e6f74206f76657264756560a81b6044820152606401610445565b60088101805460ff60401b19166807000000000000000017905560405183907f1d75e3348506adf1891a585d582e37bfdd45f92284df8a0a8a8f20e428f45c1b90600090a2505050565b6112558133611355565b50565b60006112648383610f14565b6112e2576000838152602081815260408083206001600160a01b03861684529091529020805460ff1916600117905561129a3390565b6001600160a01b0316826001600160a01b0316847f2f8788117e7eff1d82e926ec794901d17c78024a50270940304540a733656f0d60405160405180910390a45060016103af565b5060006103af565b60006112f68383610f14565b156112e2576000838152602081815260408083206001600160a01b0386168085529252808320805460ff1916905551339286917ff6391f5c32d9c69d2a47ea670b442974b53935d1edc7fd64eb21e047a839171b9190a45060016103af565b61135f8282610f14565b61138e5760405163e2517d3f60e01b81526001600160a01b038216600482015260248101839052604401610445565b5050565b6000602082840312156113a457600080fd5b81356001600160e01b0319811681146113bc57600080fd5b9392505050565b6000806000606084860312156113d857600080fd5b8335925060208401359150604084013567ffffffffffffffff811681146113fe57600080fd5b809150509250925092565b60006020828403121561141b57600080fd5b5035919050565b634e487b7160e01b600052602160045260246000fd5b6001600160a01b038c811682528b811660208301528a1660408201526060810189905261ffff8881166080830152871660a082015260c0810186905260e08101859052610100810184905267ffffffffffffffff83166101208201526101608101600883106114b757634e487b7160e01b600052602160045260246000fd5b826101408301529c9b505050505050505050505050565b80356001600160a01b03811681146114e557600080fd5b919050565b600080604083850312156114fd57600080fd5b8235915061150d602084016114ce565b90509250929050565b6000806040838503121561152957600080fd5b50508035926020909101359150565b803561ffff811681146114e557600080fd5b600080600080600060a0868803121561156257600080fd5b61156b866114ce565b9450611579602087016114ce565b93506040860135925061158e60608701611538565b915061159c60808701611538565b90509295509295909350565b6000806000604084860312156115bd57600080fd5b83359250602084013567ffffffffffffffff808211156115dc57600080fd5b818601915086601f8301126115f057600080fd5b8135818111156115ff57600080fd5b87602082850101111561161157600080fd5b6020830194508093505050509250925092565b60006020828403121561163657600080fd5b815180151581146113bc57600080fd5b634e487b7160e01b600052601160045260246000fd5b80820281158282048414176103af576103af611646565b60008261169057634e487b7160e01b600052601260045260246000fd5b500490565b6000825160005b818110156116b6576020818601810151858301520161169c565b506000920191825250919050565b808201808211156103af576103af611646565b61ffff8181168382160190808211156116f2576116f2611646565b5092915050565b60006001820161170b5761170b611646565b5060010190565b818382376000910190815291905056fea49807205ce4d355092ef5a8a18f56e8913cf4a201fbe287825b095693c21775a2646970667358221220f0af409fbf671faacf7ecfdfa7dab8387575aebbb9b262aaba867594c7b187ee64736f6c63430008140033","opcodes":"PUSH1 0xC0 PUSH1 0x40 MSTORE CALLVALUE DUP1 ISZERO PUSH3 0x11 JUMPI PUSH1 0x0 DUP1 REVERT JUMPDEST POP PUSH1 0x40 MLOAD PUSH3 0x1952 CODESIZE SUB DUP1 PUSH3 0x1952 DUP4 CODECOPY DUP2 ADD PUSH1 0x40 DUP2 SWAP1 MSTORE PUSH3 0x34 SWAP2 PUSH3 0x152 JUMP JUMPDEST PUSH1 0x1 PUSH1 0x1 PUSH1 0xA0 SHL SUB DUP1 DUP4 AND PUSH1 0x80 MSTORE DUP2 AND PUSH1 0xA0 MSTORE PUSH3 0x54 PUSH1 0x0 CALLER PUSH3 0x8A JUMP JUMPDEST POP PUSH3 0x81 PUSH32 0xA49807205CE4D355092EF5A8A18F56E8913CF4A201FBE287825B095693C21775 CALLER PUSH3 0x8A JUMP JUMPDEST POP POP POP PUSH3 0x191 JUMP JUMPDEST PUSH1 0x0 DUP3 DUP2 MSTORE PUSH1 0x20 DUP2 DUP2 MSTORE PUSH1 0x40 DUP1 DUP4 KECCAK256 PUSH1 0x1 PUSH1 0x1 PUSH1 0xA0 SHL SUB DUP6 AND DUP5 MSTORE SWAP1 SWAP2 MSTORE DUP2 KECCAK256 SLOAD PUSH1 0xFF AND PUSH3 0x12F JUMPI PUSH1 0x0 DUP4 DUP2 MSTORE PUSH1 0x20 DUP2 DUP2 MSTORE PUSH1 0x40 DUP1 DUP4 KECCAK256 PUSH1 0x1 PUSH1 0x1 PUSH1 0xA0 SHL SUB DUP7 AND DUP5 MSTORE SWAP1 SWAP2 MSTORE SWAP1 KECCAK256 DUP1 SLOAD PUSH1 0xFF NOT AND PUSH1 0x1 OR SWAP1 SSTORE PUSH3 0xE6 CALLER SWAP1 JUMP JUMPDEST PUSH1 0x1 PUSH1 0x1 PUSH1 0xA0 SHL SUB AND DUP3 PUSH1 0x1 PUSH1 0x1 PUSH1 0xA0 SHL SUB AND DUP5 PUSH32 0x2F8788117E7EFF1D82E926EC794901D17C78024A50270940304540A733656F0D PUSH1 0x40 MLOAD PUSH1 0x40 MLOAD DUP1 SWAP2 SUB SWAP1 LOG4 POP PUSH1 0x1 PUSH3 0x133 JUMP JUMPDEST POP PUSH1 0x0 JUMPDEST SWAP3 SWAP2 POP POP JUMP JUMPDEST PUSH1 0x1 PUSH1 0x1 PUSH1 0xA0 SHL SUB DUP2 AND DUP2 EQ PUSH3 0x14F JUMPI PUSH1 0x0 DUP1 REVERT JUMPDEST POP JUMP JUMPDEST PUSH1 0x0 DUP1 PUSH1 0x40 DUP4 DUP6 SUB SLT ISZERO PUSH3 0x166 JUMPI PUSH1 0x0 DUP1 REVERT JUMPDEST DUP3 MLOAD PUSH3 0x173 DUP2 PUSH3 0x139 JUMP JUMPDEST PUSH1 0x20 DUP5 ADD MLOAD SWAP1 SWAP3 POP PUSH3 0x186 DUP2 PUSH3 0x139 JUMP JUMPDEST DUP1 SWAP2 POP POP SWAP3 POP SWAP3 SWAP1 POP JUMP JUMPDEST PUSH1 0x80 MLOAD PUSH1 0xA0 MLOAD PUSH2 0x1778 PUSH3 0x1DA PUSH1 0x0 CODECOPY PUSH1 0x0 DUP2 DUP2 PUSH2 0x285 ADD MSTORE PUSH2 0x93E ADD MSTORE PUSH1 0x0 DUP2 DUP2 PUSH2 0x35C ADD MSTORE DUP2 DUP2 PUSH2 0x47C ADD MSTORE DUP2 DUP2 PUSH2 0x589 ADD MSTORE DUP2 DUP2 PUSH2 0x96D ADD MSTORE PUSH2 0x1039 ADD MSTORE PUSH2 0x1778 PUSH1 0x0 RETURN INVALID PUSH1 0x80 PUSH1 0x40 MSTORE CALLVALUE DUP1 ISZERO PUSH2 0x10 JUMPI PUSH1 0x0 DUP1 REVERT JUMPDEST POP PUSH1 0x4 CALLDATASIZE LT PUSH2 0x121 JUMPI PUSH1 0x0 CALLDATALOAD PUSH1 0xE0 SHR DUP1 PUSH4 0x75B238FC GT PUSH2 0xAD JUMPI DUP1 PUSH4 0xA217FDDF GT PUSH2 0x71 JUMPI DUP1 PUSH4 0xA217FDDF EQ PUSH2 0x316 JUMPI DUP1 PUSH4 0xCC980BC2 EQ PUSH2 0x31E JUMPI DUP1 PUSH4 0xD547741F EQ PUSH2 0x331 JUMPI DUP1 PUSH4 0xE1D927C8 EQ PUSH2 0x344 JUMPI DUP1 PUSH4 0xFCBC56F4 EQ PUSH2 0x357 JUMPI PUSH1 0x0 DUP1 REVERT JUMPDEST DUP1 PUSH4 0x75B238FC EQ PUSH2 0x2BF JUMPI DUP1 PUSH4 0x7BAD12D5 EQ PUSH2 0x2D4 JUMPI DUP1 PUSH4 0x813AD083 EQ PUSH2 0x2E7 JUMPI DUP1 PUSH4 0x858989A3 EQ PUSH2 0x2F0 JUMPI DUP1 PUSH4 0x91D14854 EQ PUSH2 0x303 JUMPI PUSH1 0x0 DUP1 REVERT JUMPDEST DUP1 PUSH4 0x28FF1057 GT PUSH2 0xF4 JUMPI DUP1 PUSH4 0x28FF1057 EQ PUSH2 0x234 JUMPI DUP1 PUSH4 0x2F2FF15D EQ PUSH2 0x247 JUMPI DUP1 PUSH4 0x36568ABE EQ PUSH2 0x25A JUMPI DUP1 PUSH4 0x396C7985 EQ PUSH2 0x26D JUMPI DUP1 PUSH4 0x61D027B3 EQ PUSH2 0x280 JUMPI PUSH1 0x0 DUP1 REVERT JUMPDEST DUP1 PUSH4 0x1FFC9A7 EQ PUSH2 0x126 JUMPI DUP1 PUSH4 0x167DBAAF EQ PUSH2 0x14E JUMPI DUP1 PUSH4 0x1E6C598E EQ PUSH2 0x163 JUMPI DUP1 PUSH4 0x248A9CA3 EQ PUSH2 0x203 JUMPI JUMPDEST PUSH1 0x0 DUP1 REVERT JUMPDEST PUSH2 0x139 PUSH2 0x134 CALLDATASIZE PUSH1 0x4 PUSH2 0x1392 JUMP JUMPDEST PUSH2 0x37E JUMP JUMPDEST PUSH1 0x40 MLOAD SWAP1 ISZERO ISZERO DUP2 MSTORE PUSH1 0x20 ADD JUMPDEST PUSH1 0x40 MLOAD DUP1 SWAP2 SUB SWAP1 RETURN JUMPDEST PUSH2 0x161 PUSH2 0x15C CALLDATASIZE PUSH1 0x4 PUSH2 0x13C3 JUMP JUMPDEST PUSH2 0x3B5 JUMP JUMPDEST STOP JUMPDEST PUSH2 0x1EC PUSH2 0x171 CALLDATASIZE PUSH1 0x4 PUSH2 0x1409 JUMP JUMPDEST PUSH1 0x2 PUSH1 0x20 DUP2 SWAP1 MSTORE PUSH1 0x0 SWAP2 DUP3 MSTORE PUSH1 0x40 SWAP1 SWAP2 KECCAK256 DUP1 SLOAD PUSH1 0x1 DUP3 ADD SLOAD SWAP3 DUP3 ADD SLOAD PUSH1 0x3 DUP4 ADD SLOAD PUSH1 0x4 DUP5 ADD SLOAD PUSH1 0x5 DUP6 ADD SLOAD PUSH1 0x6 DUP7 ADD SLOAD PUSH1 0x7 DUP8 ADD SLOAD PUSH1 0x8 SWAP1 SWAP8 ADD SLOAD PUSH1 0x1 PUSH1 0x1 PUSH1 0xA0 SHL SUB SWAP7 DUP8 AND SWAP9 DUP8 AND SWAP8 SWAP6 SWAP1 SWAP7 AND SWAP6 SWAP4 SWAP5 PUSH2 0xFFFF DUP1 DUP6 AND SWAP6 PUSH3 0x10000 SWAP1 SWAP6 DIV AND SWAP4 PUSH8 0xFFFFFFFFFFFFFFFF DUP2 AND SWAP1 PUSH1 0xFF PUSH1 0x1 PUSH1 0x40 SHL SWAP1 SWAP2 DIV AND DUP12 JUMP JUMPDEST PUSH1 0x40 MLOAD PUSH2 0x145 SWAP12 SWAP11 SWAP10 SWAP9 SWAP8 SWAP7 SWAP6 SWAP5 SWAP4 SWAP3 SWAP2 SWAP1 PUSH2 0x1438 JUMP JUMPDEST PUSH2 0x226 PUSH2 0x211 CALLDATASIZE PUSH1 0x4 PUSH2 0x1409 JUMP JUMPDEST PUSH1 0x0 SWAP1 DUP2 MSTORE PUSH1 0x20 DUP2 SWAP1 MSTORE PUSH1 0x40 SWAP1 KECCAK256 PUSH1 0x1 ADD SLOAD SWAP1 JUMP JUMPDEST PUSH1 0x40 MLOAD SWAP1 DUP2 MSTORE PUSH1 0x20 ADD PUSH2 0x145 JUMP JUMPDEST PUSH2 0x161 PUSH2 0x242 CALLDATASIZE PUSH1 0x4 PUSH2 0x14EA JUMP JUMPDEST PUSH2 0x700 JUMP JUMPDEST PUSH2 0x161 PUSH2 0x255 CALLDATASIZE PUSH1 0x4 PUSH2 0x14EA JUMP JUMPDEST PUSH2 0x74C JUMP JUMPDEST PUSH2 0x161 PUSH2 0x268 CALLDATASIZE PUSH1 0x4 PUSH2 0x14EA JUMP JUMPDEST PUSH2 0x777 JUMP JUMPDEST PUSH2 0x161 PUSH2 0x27B CALLDATASIZE PUSH1 0x4 PUSH2 0x1516 JUMP JUMPDEST PUSH2 0x7AF JUMP JUMPDEST PUSH2 0x2A7 PUSH32 0x0 DUP2 JUMP JUMPDEST PUSH1 0x40 MLOAD PUSH1 0x1 PUSH1 0x1 PUSH1 0xA0 SHL SUB SWAP1 SWAP2 AND DUP2 MSTORE PUSH1 0x20 ADD PUSH2 0x145 JUMP JUMPDEST PUSH2 0x226 PUSH1 0x0 DUP1 MLOAD PUSH1 0x20 PUSH2 0x1723 DUP4 CODECOPY DUP2 MLOAD SWAP2 MSTORE DUP2 JUMP JUMPDEST PUSH2 0x226 PUSH2 0x2E2 CALLDATASIZE PUSH1 0x4 PUSH2 0x154A JUMP JUMPDEST PUSH2 0xABD JUMP JUMPDEST PUSH2 0x226 PUSH1 0x1 SLOAD DUP2 JUMP JUMPDEST PUSH2 0x161 PUSH2 0x2FE CALLDATASIZE PUSH1 0x4 PUSH2 0x15A8 JUMP JUMPDEST PUSH2 0xD91 JUMP JUMPDEST PUSH2 0x139 PUSH2 0x311 CALLDATASIZE PUSH1 0x4 PUSH2 0x14EA JUMP JUMPDEST PUSH2 0xF14 JUMP JUMPDEST PUSH2 0x226 PUSH1 0x0 DUP2 JUMP JUMPDEST PUSH2 0x161 PUSH2 0x32C CALLDATASIZE PUSH1 0x4 PUSH2 0x1516 JUMP JUMPDEST PUSH2 0xF3D JUMP JUMPDEST PUSH2 0x161 PUSH2 0x33F CALLDATASIZE PUSH1 0x4 PUSH2 0x14EA JUMP JUMPDEST PUSH2 0x113F JUMP JUMPDEST PUSH2 0x161 PUSH2 0x352 CALLDATASIZE PUSH1 0x4 PUSH2 0x1409 JUMP JUMPDEST PUSH2 0x1164 JUMP JUMPDEST PUSH2 0x2A7 PUSH32 0x0 DUP2 JUMP JUMPDEST PUSH1 0x0 PUSH1 0x1 PUSH1 0x1 PUSH1 0xE0 SHL SUB NOT DUP3 AND PUSH4 0x7965DB0B PUSH1 0xE0 SHL EQ DUP1 PUSH2 0x3AF JUMPI POP PUSH4 0x1FFC9A7 PUSH1 0xE0 SHL PUSH1 0x1 PUSH1 0x1 PUSH1 0xE0 SHL SUB NOT DUP4 AND EQ JUMPDEST SWAP3 SWAP2 POP POP JUMP JUMPDEST PUSH1 0x0 DUP1 MLOAD PUSH1 0x20 PUSH2 0x1723 DUP4 CODECOPY DUP2 MLOAD SWAP2 MSTORE PUSH2 0x3CD DUP2 PUSH2 0x124B JUMP JUMPDEST PUSH1 0x0 DUP5 DUP2 MSTORE PUSH1 0x2 PUSH1 0x20 DUP2 SWAP1 MSTORE PUSH1 0x40 SWAP1 SWAP2 KECCAK256 SWAP1 PUSH1 0x8 DUP3 ADD SLOAD PUSH1 0x1 PUSH1 0x40 SHL SWAP1 DIV PUSH1 0xFF AND PUSH1 0x7 DUP2 GT ISZERO PUSH2 0x3FF JUMPI PUSH2 0x3FF PUSH2 0x1422 JUMP JUMPDEST EQ DUP1 ISZERO PUSH2 0x410 JUMPI POP PUSH1 0x0 DUP2 PUSH1 0x5 ADD SLOAD GT JUMPDEST PUSH2 0x44E JUMPI PUSH1 0x40 MLOAD PUSH3 0x461BCD PUSH1 0xE5 SHL DUP2 MSTORE PUSH1 0x20 PUSH1 0x4 DUP3 ADD MSTORE PUSH1 0xA PUSH1 0x24 DUP3 ADD MSTORE PUSH10 0x1B9BC819195C1BDCDA5D PUSH1 0xB2 SHL PUSH1 0x44 DUP3 ADD MSTORE PUSH1 0x64 ADD JUMPDEST PUSH1 0x40 MLOAD DUP1 SWAP2 SUB SWAP1 REVERT JUMPDEST DUP1 SLOAD PUSH1 0x5 DUP3 ADD SLOAD PUSH1 0x40 MLOAD PUSH4 0xA9059CBB PUSH1 0xE0 SHL DUP2 MSTORE PUSH1 0x1 PUSH1 0x1 PUSH1 0xA0 SHL SUB SWAP3 DUP4 AND PUSH1 0x4 DUP3 ADD MSTORE PUSH1 0x24 DUP2 ADD SWAP2 SWAP1 SWAP2 MSTORE PUSH32 0x0 SWAP1 SWAP2 AND SWAP1 PUSH4 0xA9059CBB SWAP1 PUSH1 0x44 ADD PUSH1 0x20 PUSH1 0x40 MLOAD DUP1 DUP4 SUB DUP2 PUSH1 0x0 DUP8 GAS CALL ISZERO DUP1 ISZERO PUSH2 0x4C7 JUMPI RETURNDATASIZE PUSH1 0x0 DUP1 RETURNDATACOPY RETURNDATASIZE PUSH1 0x0 REVERT JUMPDEST POP POP POP POP PUSH1 0x40 MLOAD RETURNDATASIZE PUSH1 0x1F NOT PUSH1 0x1F DUP3 ADD AND DUP3 ADD DUP1 PUSH1 0x40 MSTORE POP DUP2 ADD SWAP1 PUSH2 0x4EB SWAP2 SWAP1 PUSH2 0x1624 JUMP JUMPDEST PUSH2 0x537 JUMPI PUSH1 0x40 MLOAD PUSH3 0x461BCD PUSH1 0xE5 SHL DUP2 MSTORE PUSH1 0x20 PUSH1 0x4 DUP3 ADD MSTORE PUSH1 0x1B PUSH1 0x24 DUP3 ADD MSTORE PUSH32 0x657363726F772D3E737570706C69657220333025206661696C65640000000000 PUSH1 0x44 DUP3 ADD MSTORE PUSH1 0x64 ADD PUSH2 0x445 JUMP JUMPDEST PUSH1 0x4 DUP2 ADD SLOAD PUSH1 0x3 DUP3 ADD SLOAD PUSH1 0x0 SWAP2 PUSH1 0x64 SWAP2 PUSH2 0x55B SWAP2 PUSH3 0x10000 SWAP1 DIV PUSH2 0xFFFF AND SWAP1 PUSH2 0x165C JUMP JUMPDEST PUSH2 0x565 SWAP2 SWAP1 PUSH2 0x1673 JUMP JUMPDEST DUP3 SLOAD PUSH1 0x40 MLOAD PUSH1 0x1 PUSH1 0x1 PUSH1 0xA0 SHL SUB SWAP2 DUP3 AND PUSH1 0x24 DUP3 ADD MSTORE PUSH1 0x44 DUP2 ADD DUP4 SWAP1 MSTORE SWAP2 SWAP3 POP PUSH1 0x0 SWAP2 PUSH32 0x0 SWAP1 SWAP2 AND SWAP1 PUSH1 0x64 ADD PUSH1 0x40 DUP1 MLOAD PUSH1 0x1F NOT DUP2 DUP5 SUB ADD DUP2 MSTORE SWAP2 DUP2 MSTORE PUSH1 0x20 DUP3 ADD DUP1 MLOAD PUSH1 0x1 PUSH1 0x1 PUSH1 0xE0 SHL SUB AND PUSH4 0x40C10F19 PUSH1 0xE0 SHL OR SWAP1 MSTORE MLOAD PUSH2 0x5E4 SWAP2 SWAP1 PUSH2 0x1695 JUMP JUMPDEST PUSH1 0x0 PUSH1 0x40 MLOAD DUP1 DUP4 SUB DUP2 PUSH1 0x0 DUP7 GAS CALL SWAP2 POP POP RETURNDATASIZE DUP1 PUSH1 0x0 DUP2 EQ PUSH2 0x621 JUMPI PUSH1 0x40 MLOAD SWAP2 POP PUSH1 0x1F NOT PUSH1 0x3F RETURNDATASIZE ADD AND DUP3 ADD PUSH1 0x40 MSTORE RETURNDATASIZE DUP3 MSTORE RETURNDATASIZE PUSH1 0x0 PUSH1 0x20 DUP5 ADD RETURNDATACOPY PUSH2 0x626 JUMP JUMPDEST PUSH1 0x60 SWAP2 POP JUMPDEST POP POP SWAP1 POP DUP1 PUSH2 0x669 JUMPI PUSH1 0x40 MLOAD PUSH3 0x461BCD PUSH1 0xE5 SHL DUP2 MSTORE PUSH1 0x20 PUSH1 0x4 DUP3 ADD MSTORE PUSH1 0xF PUSH1 0x24 DUP3 ADD MSTORE PUSH15 0x1B5A5B9D080DCC094819985A5B1959 PUSH1 0x8A SHL PUSH1 0x44 DUP3 ADD MSTORE PUSH1 0x64 ADD PUSH2 0x445 JUMP JUMPDEST PUSH1 0x7 DUP4 ADD DUP7 SWAP1 SSTORE PUSH1 0x8 DUP4 ADD DUP1 SLOAD PUSH1 0x1 PUSH1 0x42 SHL PUSH9 0xFFFFFFFFFFFFFFFFFF NOT SWAP1 SWAP2 AND PUSH8 0xFFFFFFFFFFFFFFFF DUP9 AND OR OR SWAP1 SSTORE PUSH1 0x5 DUP4 ADD SLOAD DUP8 SWAP1 PUSH32 0x7811FF1CEAE72F4CB52D4B985D14C2528E87F51741E157A50B02500307D4DB25 SWAP1 DUP9 SWAP1 DUP9 SWAP1 PUSH2 0x6D0 SWAP1 DUP8 SWAP1 PUSH2 0x16C4 JUMP JUMPDEST PUSH1 0x40 DUP1 MLOAD SWAP4 DUP5 MSTORE PUSH8 0xFFFFFFFFFFFFFFFF SWAP1 SWAP3 AND PUSH1 0x20 DUP5 ADD MSTORE SWAP1 DUP3 ADD MSTORE PUSH1 0x60 ADD PUSH1 0x40 MLOAD DUP1 SWAP2 SUB SWAP1 LOG2 POP POP POP POP POP POP POP JUMP JUMPDEST PUSH1 0x0 DUP1 MLOAD PUSH1 0x20 PUSH2 0x1723 DUP4 CODECOPY DUP2 MLOAD SWAP2 MSTORE PUSH2 0x718 DUP2 PUSH2 0x124B JUMP JUMPDEST POP PUSH1 0x0 SWAP2 DUP3 MSTORE PUSH1 0x2 PUSH1 0x20 DUP2 SWAP1 MSTORE PUSH1 0x40 SWAP1 SWAP3 KECCAK256 SWAP1 SWAP2 ADD DUP1 SLOAD PUSH1 0x1 PUSH1 0x1 PUSH1 0xA0 SHL SUB NOT AND PUSH1 0x1 PUSH1 0x1 PUSH1 0xA0 SHL SUB SWAP1 SWAP3 AND SWAP2 SWAP1 SWAP2 OR SWAP1 SSTORE JUMP JUMPDEST PUSH1 0x0 DUP3 DUP2 MSTORE PUSH1 0x20 DUP2 SWAP1 MSTORE PUSH1 0x40 SWAP1 KECCAK256 PUSH1 0x1 ADD SLOAD PUSH2 0x767 DUP2 PUSH2 0x124B JUMP JUMPDEST PUSH2 0x771 DUP4 DUP4 PUSH2 0x1258 JUMP JUMPDEST POP POP POP POP JUMP JUMPDEST PUSH1 0x1 PUSH1 0x1 PUSH1 0xA0 SHL SUB DUP2 AND CALLER EQ PUSH2 0x7A0 JUMPI PUSH1 0x40 MLOAD PUSH4 0x334BD919 PUSH1 0xE1 SHL DUP2 MSTORE PUSH1 0x4 ADD PUSH1 0x40 MLOAD DUP1 SWAP2 SUB SWAP1 REVERT JUMPDEST PUSH2 0x7AA DUP3 DUP3 PUSH2 0x12EA JUMP JUMPDEST POP POP POP JUMP JUMPDEST PUSH1 0x0 DUP3 DUP2 MSTORE PUSH1 0x2 PUSH1 0x20 MSTORE PUSH1 0x40 SWAP1 KECCAK256 PUSH1 0x1 DUP2 ADD SLOAD PUSH1 0x1 PUSH1 0x1 PUSH1 0xA0 SHL SUB AND CALLER EQ DUP1 PUSH2 0x7E4 JUMPI POP PUSH1 0x2 DUP2 ADD SLOAD PUSH1 0x1 PUSH1 0x1 PUSH1 0xA0 SHL SUB AND CALLER EQ JUMPDEST PUSH2 0x828 JUMPI PUSH1 0x40 MLOAD PUSH3 0x461BCD PUSH1 0xE5 SHL DUP2 MSTORE PUSH1 0x20 PUSH1 0x4 DUP3 ADD MSTORE PUSH1 0x15 PUSH1 0x24 DUP3 ADD MSTORE PUSH21 0x6F6E6C792062757965722F646F776E73747265616D PUSH1 0x58 SHL PUSH1 0x44 DUP3 ADD MSTORE PUSH1 0x64 ADD PUSH2 0x445 JUMP JUMPDEST PUSH1 0x4 PUSH1 0x8 DUP3 ADD SLOAD PUSH1 0x1 PUSH1 0x40 SHL SWAP1 DIV PUSH1 0xFF AND PUSH1 0x7 DUP2 GT ISZERO PUSH2 0x84A JUMPI PUSH2 0x84A PUSH2 0x1422 JUMP JUMPDEST EQ DUP1 PUSH2 0x875 JUMPI POP PUSH1 0x5 PUSH1 0x8 DUP3 ADD SLOAD PUSH1 0x1 PUSH1 0x40 SHL SWAP1 DIV PUSH1 0xFF AND PUSH1 0x7 DUP2 GT ISZERO PUSH2 0x873 JUMPI PUSH2 0x873 PUSH2 0x1422 JUMP JUMPDEST EQ JUMPDEST PUSH2 0x8AE JUMPI PUSH1 0x40 MLOAD PUSH3 0x461BCD PUSH1 0xE5 SHL DUP2 MSTORE PUSH1 0x20 PUSH1 0x4 DUP3 ADD MSTORE PUSH1 0xA PUSH1 0x24 DUP3 ADD MSTORE PUSH10 0x62616420737461747573 PUSH1 0xB0 SHL PUSH1 0x44 DUP3 ADD MSTORE PUSH1 0x64 ADD PUSH2 0x445 JUMP JUMPDEST PUSH1 0x4 DUP2 ADD SLOAD PUSH1 0x3 DUP3 ADD SLOAD PUSH1 0x0 SWAP2 PUSH1 0x64 SWAP2 PUSH2 0x8D2 SWAP2 PUSH3 0x10000 SWAP1 DIV PUSH2 0xFFFF AND SWAP1 PUSH2 0x165C JUMP JUMPDEST PUSH2 0x8DC SWAP2 SWAP1 PUSH2 0x1673 JUMP JUMPDEST SWAP1 POP DUP1 DUP4 EQ PUSH2 0x921 JUMPI PUSH1 0x40 MLOAD PUSH3 0x461BCD PUSH1 0xE5 SHL DUP2 MSTORE PUSH1 0x20 PUSH1 0x4 DUP3 ADD MSTORE PUSH1 0x11 PUSH1 0x24 DUP3 ADD MSTORE PUSH17 0x6D75737420626520657861637420373025 PUSH1 0x78 SHL PUSH1 0x44 DUP3 ADD MSTORE PUSH1 0x64 ADD PUSH2 0x445 JUMP JUMPDEST PUSH1 0x40 MLOAD PUSH4 0x23B872DD PUSH1 0xE0 SHL DUP2 MSTORE CALLER PUSH1 0x4 DUP3 ADD MSTORE PUSH1 0x1 PUSH1 0x1 PUSH1 0xA0 SHL SUB PUSH32 0x0 DUP2 AND PUSH1 0x24 DUP4 ADD MSTORE PUSH1 0x44 DUP3 ADD DUP6 SWAP1 MSTORE PUSH32 0x0 AND SWAP1 PUSH4 0x23B872DD SWAP1 PUSH1 0x64 ADD PUSH1 0x20 PUSH1 0x40 MLOAD DUP1 DUP4 SUB DUP2 PUSH1 0x0 DUP8 GAS CALL ISZERO DUP1 ISZERO PUSH2 0x9B6 JUMPI RETURNDATASIZE PUSH1 0x0 DUP1 RETURNDATACOPY RETURNDATASIZE PUSH1 0x0 REVERT JUMPDEST POP POP POP POP PUSH1 0x40 MLOAD RETURNDATASIZE PUSH1 0x1F NOT PUSH1 0x1F DUP3 ADD AND DUP3 ADD DUP1 PUSH1 0x40 MSTORE POP DUP2 ADD SWAP1 PUSH2 0x9DA SWAP2 SWAP1 PUSH2 0x1624 JUMP JUMPDEST PUSH2 0xA19 JUMPI PUSH1 0x40 MLOAD PUSH3 0x461BCD PUSH1 0xE5 SHL DUP2 MSTORE PUSH1 0x20 PUSH1 0x4 DUP3 ADD MSTORE PUSH1 0x10 PUSH1 0x24 DUP3 ADD MSTORE PUSH16 0x1C185E48199A5B985B0819985A5B1959 PUSH1 0x82 SHL PUSH1 0x44 DUP3 ADD MSTORE PUSH1 0x64 ADD PUSH2 0x445 JUMP JUMPDEST PUSH1 0x6 DUP3 ADD DUP4 SWAP1 SSTORE PUSH1 0x5 PUSH1 0x8 DUP4 ADD SLOAD PUSH1 0x1 PUSH1 0x40 SHL SWAP1 DIV PUSH1 0xFF AND PUSH1 0x7 DUP2 GT ISZERO PUSH2 0xA42 JUMPI PUSH2 0xA42 PUSH2 0x1422 JUMP JUMPDEST SUB PUSH2 0xA61 JUMPI PUSH1 0x8 DUP3 ADD DUP1 SLOAD PUSH1 0xFF PUSH1 0x40 SHL NOT AND PUSH1 0x3 PUSH1 0x41 SHL OR SWAP1 SSTORE PUSH2 0xA7C JUMP JUMPDEST PUSH1 0x8 DUP3 ADD DUP1 SLOAD PUSH1 0xFF PUSH1 0x40 SHL NOT AND PUSH9 0x50000000000000000 OR SWAP1 SSTORE JUMPDEST PUSH1 0x40 DUP1 MLOAD DUP5 DUP2 MSTORE CALLER PUSH1 0x20 DUP3 ADD MSTORE DUP6 SWAP2 PUSH32 0x3377FC90609BD2203D94B98973E43FA87A6340396CF596CF0600BFAE08168737 SWAP2 ADD JUMPDEST PUSH1 0x40 MLOAD DUP1 SWAP2 SUB SWAP1 LOG2 POP POP POP POP JUMP JUMPDEST PUSH1 0x0 PUSH1 0x0 DUP1 MLOAD PUSH1 0x20 PUSH2 0x1723 DUP4 CODECOPY DUP2 MLOAD SWAP2 MSTORE PUSH2 0xAD7 DUP2 PUSH2 0x124B JUMP JUMPDEST PUSH1 0x1 PUSH1 0x1 PUSH1 0xA0 SHL SUB DUP8 AND ISZERO DUP1 ISZERO SWAP1 PUSH2 0xAF7 JUMPI POP PUSH1 0x1 PUSH1 0x1 PUSH1 0xA0 SHL SUB DUP7 AND ISZERO ISZERO JUMPDEST PUSH2 0xB31 JUMPI PUSH1 0x40 MLOAD PUSH3 0x461BCD PUSH1 0xE5 SHL DUP2 MSTORE PUSH1 0x20 PUSH1 0x4 DUP3 ADD MSTORE PUSH1 0xB PUSH1 0x24 DUP3 ADD MSTORE PUSH11 0x6261642070617274696573 PUSH1 0xA8 SHL PUSH1 0x44 DUP3 ADD MSTORE PUSH1 0x64 ADD PUSH2 0x445 JUMP JUMPDEST PUSH2 0xB3B DUP4 DUP6 PUSH2 0x16D7 JUMP JUMPDEST PUSH2 0xFFFF AND PUSH1 0x64 EQ PUSH2 0xB78 JUMPI PUSH1 0x40 MLOAD PUSH3 0x461BCD PUSH1 0xE5 SHL DUP2 MSTORE PUSH1 0x20 PUSH1 0x4 DUP3 ADD MSTORE PUSH1 0x7 PUSH1 0x24 DUP3 ADD MSTORE PUSH7 0x189859081C18DD PUSH1 0xCA SHL PUSH1 0x44 DUP3 ADD MSTORE PUSH1 0x64 ADD PUSH2 0x445 JUMP JUMPDEST PUSH1 0x1 PUSH1 0x0 DUP2 SLOAD PUSH2 0xB87 SWAP1 PUSH2 0x16F9 JUMP JUMPDEST SWAP2 DUP3 SWAP1 SSTORE POP PUSH1 0x40 DUP1 MLOAD PUSH2 0x160 DUP2 ADD DUP3 MSTORE PUSH1 0x1 PUSH1 0x1 PUSH1 0xA0 SHL SUB DUP1 DUP12 AND DUP3 MSTORE DUP10 AND PUSH1 0x20 DUP3 ADD MSTORE PUSH1 0x0 SWAP2 DUP2 ADD DUP3 SWAP1 MSTORE PUSH1 0x60 DUP2 ADD DUP9 SWAP1 MSTORE PUSH2 0xFFFF DUP1 DUP9 AND PUSH1 0x80 DUP4 ADD MSTORE DUP7 AND PUSH1 0xA0 DUP3 ADD MSTORE PUSH1 0xC0 DUP2 ADD DUP3 SWAP1 MSTORE PUSH1 0xE0 DUP2 ADD DUP3 SWAP1 MSTORE PUSH2 0x100 DUP2 ADD DUP3 SWAP1 MSTORE PUSH2 0x120 DUP2 ADD SWAP2 SWAP1 SWAP2 MSTORE SWAP1 SWAP3 POP PUSH2 0x140 DUP2 ADD PUSH1 0x1 SWAP1 MSTORE PUSH1 0x0 DUP4 DUP2 MSTORE PUSH1 0x2 PUSH1 0x20 DUP2 DUP2 MSTORE PUSH1 0x40 SWAP3 DUP4 SWAP1 KECCAK256 DUP5 MLOAD DUP2 SLOAD PUSH1 0x1 PUSH1 0x1 PUSH1 0xA0 SHL SUB SWAP2 DUP3 AND PUSH1 0x1 PUSH1 0x1 PUSH1 0xA0 SHL SUB NOT SWAP2 DUP3 AND OR DUP4 SSTORE SWAP3 DUP7 ADD MLOAD PUSH1 0x1 DUP4 ADD DUP1 SLOAD SWAP2 DUP4 AND SWAP2 DUP6 AND SWAP2 SWAP1 SWAP2 OR SWAP1 SSTORE SWAP4 DUP6 ADD MLOAD SWAP3 DUP2 ADD DUP1 SLOAD SWAP4 SWAP1 SWAP5 AND SWAP3 SWAP1 SWAP2 AND SWAP2 SWAP1 SWAP2 OR SWAP1 SWAP2 SSTORE PUSH1 0x60 DUP3 ADD MLOAD PUSH1 0x3 DUP3 ADD SSTORE PUSH1 0x80 DUP3 ADD MLOAD PUSH1 0x4 DUP3 ADD DUP1 SLOAD PUSH1 0xA0 DUP6 ADD MLOAD PUSH2 0xFFFF SWAP1 DUP2 AND PUSH3 0x10000 MUL PUSH4 0xFFFFFFFF NOT SWAP1 SWAP3 AND SWAP4 AND SWAP3 SWAP1 SWAP3 OR SWAP2 SWAP1 SWAP2 OR SWAP1 SSTORE PUSH1 0xC0 DUP3 ADD MLOAD PUSH1 0x5 DUP3 ADD SSTORE PUSH1 0xE0 DUP3 ADD MLOAD PUSH1 0x6 DUP3 ADD SSTORE PUSH2 0x100 DUP3 ADD MLOAD PUSH1 0x7 DUP1 DUP4 ADD SWAP2 SWAP1 SWAP2 SSTORE PUSH2 0x120 DUP4 ADD MLOAD PUSH1 0x8 DUP4 ADD DUP1 SLOAD PUSH8 0xFFFFFFFFFFFFFFFF SWAP1 SWAP3 AND PUSH8 0xFFFFFFFFFFFFFFFF NOT DUP4 AND DUP2 OR DUP3 SSTORE PUSH2 0x140 DUP7 ADD MLOAD SWAP4 SWAP2 SWAP3 PUSH9 0xFFFFFFFFFFFFFFFFFF NOT AND OR SWAP1 PUSH1 0x1 PUSH1 0x40 SHL SWAP1 DUP5 SWAP1 DUP2 GT ISZERO PUSH2 0xD08 JUMPI PUSH2 0xD08 PUSH2 0x1422 JUMP JUMPDEST MUL OR SWAP1 SSTORE POP POP PUSH1 0x40 DUP1 MLOAD PUSH1 0x1 PUSH1 0x1 PUSH1 0xA0 SHL SUB DUP1 DUP12 AND DUP3 MSTORE DUP10 AND PUSH1 0x20 DUP3 ADD MSTORE SWAP1 DUP2 ADD DUP8 SWAP1 MSTORE DUP4 SWAP2 POP PUSH32 0x7DB1856A9087992B8C7C25A7F1622A9B144FF325953AEE6BBB6D38D762C189F6 SWAP1 PUSH1 0x60 ADD PUSH1 0x40 MLOAD DUP1 SWAP2 SUB SWAP1 LOG2 PUSH1 0x40 MLOAD DUP3 SWAP1 PUSH32 0x5745B04F0487ED3DF77AEF07F8203E42E3DDA220117BB702FBB3FD48FB148D61 SWAP1 PUSH1 0x0 SWAP1 LOG2 POP SWAP6 SWAP5 POP POP POP POP POP JUMP JUMPDEST PUSH1 0x0 DUP4 DUP2 MSTORE PUSH1 0x2 PUSH1 0x20 MSTORE PUSH1 0x40 SWAP1 KECCAK256 PUSH1 0x1 DUP2 ADD SLOAD PUSH1 0x1 PUSH1 0x1 PUSH1 0xA0 SHL SUB AND CALLER EQ DUP1 PUSH2 0xDC6 JUMPI POP PUSH1 0x2 DUP2 ADD SLOAD PUSH1 0x1 PUSH1 0x1 PUSH1 0xA0 SHL SUB AND CALLER EQ JUMPDEST PUSH2 0xE0A JUMPI PUSH1 0x40 MLOAD PUSH3 0x461BCD PUSH1 0xE5 SHL DUP2 MSTORE PUSH1 0x20 PUSH1 0x4 DUP3 ADD MSTORE PUSH1 0x15 PUSH1 0x24 DUP3 ADD MSTORE PUSH21 0x6F6E6C792062757965722F646F776E73747265616D PUSH1 0x58 SHL PUSH1 0x44 DUP3 ADD MSTORE PUSH1 0x64 ADD PUSH2 0x445 JUMP JUMPDEST PUSH1 0x7 DUP2 ADD SLOAD PUSH2 0xE44 JUMPI PUSH1 0x40 MLOAD PUSH3 0x461BCD PUSH1 0xE5 SHL DUP2 MSTORE PUSH1 0x20 PUSH1 0x4 DUP3 ADD MSTORE PUSH1 0x6 PUSH1 0x24 DUP3 ADD MSTORE PUSH6 0x6E6F206B6579 PUSH1 0xD0 SHL PUSH1 0x44 DUP3 ADD MSTORE PUSH1 0x64 ADD PUSH2 0x445 JUMP JUMPDEST DUP1 PUSH1 0x7 ADD SLOAD DUP4 DUP4 PUSH1 0x40 MLOAD PUSH1 0x20 ADD PUSH2 0xE5C SWAP3 SWAP2 SWAP1 PUSH2 0x1712 JUMP JUMPDEST PUSH1 0x40 MLOAD PUSH1 0x20 DUP2 DUP4 SUB SUB DUP2 MSTORE SWAP1 PUSH1 0x40 MSTORE DUP1 MLOAD SWAP1 PUSH1 0x20 ADD KECCAK256 EQ PUSH2 0xEA9 JUMPI PUSH1 0x40 MLOAD PUSH3 0x461BCD PUSH1 0xE5 SHL DUP2 MSTORE PUSH1 0x20 PUSH1 0x4 DUP3 ADD MSTORE PUSH1 0x7 PUSH1 0x24 DUP3 ADD MSTORE PUSH7 0x626164206B6579 PUSH1 0xC8 SHL PUSH1 0x44 DUP3 ADD MSTORE PUSH1 0x64 ADD PUSH2 0x445 JUMP JUMPDEST PUSH1 0x6 DUP2 ADD SLOAD ISZERO PUSH2 0xECD JUMPI PUSH1 0x8 DUP2 ADD DUP1 SLOAD PUSH1 0xFF PUSH1 0x40 SHL NOT AND PUSH1 0x3 PUSH1 0x41 SHL OR SWAP1 SSTORE PUSH2 0xEE3 JUMP JUMPDEST PUSH1 0x8 DUP2 ADD DUP1 SLOAD PUSH1 0xFF PUSH1 0x40 SHL NOT AND PUSH1 0x1 PUSH1 0x42 SHL OR SWAP1 SSTORE JUMPDEST PUSH1 0x40 MLOAD DUP5 SWAP1 PUSH32 0x7A355715549CFE7C1CBA26304350343FBDDC4B4F72D3CE3E7C27117DD20B5CB8 SWAP1 PUSH1 0x0 SWAP1 LOG2 POP POP POP POP JUMP JUMPDEST PUSH1 0x0 SWAP2 DUP3 MSTORE PUSH1 0x20 DUP3 DUP2 MSTORE PUSH1 0x40 DUP1 DUP5 KECCAK256 PUSH1 0x1 PUSH1 0x1 PUSH1 0xA0 SHL SUB SWAP4 SWAP1 SWAP4 AND DUP5 MSTORE SWAP2 SWAP1 MSTORE SWAP1 KECCAK256 SLOAD PUSH1 0xFF AND SWAP1 JUMP JUMPDEST PUSH1 0x0 DUP3 DUP2 MSTORE PUSH1 0x2 PUSH1 0x20 MSTORE PUSH1 0x40 SWAP1 KECCAK256 PUSH1 0x1 PUSH1 0x8 DUP3 ADD SLOAD PUSH1 0x1 PUSH1 0x40 SHL SWAP1 DIV PUSH1 0xFF AND PUSH1 0x7 DUP2 GT ISZERO PUSH2 0xF6D JUMPI PUSH2 0xF6D PUSH2 0x1422 JUMP JUMPDEST EQ PUSH2 0xFAA JUMPI PUSH1 0x40 MLOAD PUSH3 0x461BCD PUSH1 0xE5 SHL DUP2 MSTORE PUSH1 0x20 PUSH1 0x4 DUP3 ADD MSTORE PUSH1 0xD PUSH1 0x24 DUP3 ADD MSTORE PUSH13 0x1B9BDD0818DBDB999A5C9B5959 PUSH1 0x9A SHL PUSH1 0x44 DUP3 ADD MSTORE PUSH1 0x64 ADD PUSH2 0x445 JUMP JUMPDEST PUSH1 0x4 DUP2 ADD SLOAD PUSH1 0x3 DUP3 ADD SLOAD PUSH1 0x0 SWAP2 PUSH1 0x64 SWAP2 PUSH2 0xFC8 SWAP2 PUSH2 0xFFFF AND SWAP1 PUSH2 0x165C JUMP JUMPDEST PUSH2 0xFD2 SWAP2 SWAP1 PUSH2 0x1673 JUMP JUMPDEST SWAP1 POP DUP1 DUP4 EQ PUSH2 0x1017 JUMPI PUSH1 0x40 MLOAD PUSH3 0x461BCD PUSH1 0xE5 SHL DUP2 MSTORE PUSH1 0x20 PUSH1 0x4 DUP3 ADD MSTORE PUSH1 0x11 PUSH1 0x24 DUP3 ADD MSTORE PUSH17 0x6D75737420626520657861637420333025 PUSH1 0x78 SHL PUSH1 0x44 DUP3 ADD MSTORE PUSH1 0x64 ADD PUSH2 0x445 JUMP JUMPDEST PUSH1 0x40 MLOAD PUSH4 0x23B872DD PUSH1 0xE0 SHL DUP2 MSTORE CALLER PUSH1 0x4 DUP3 ADD MSTORE ADDRESS PUSH1 0x24 DUP3 ADD MSTORE PUSH1 0x44 DUP2 ADD DUP5 SWAP1 MSTORE PUSH32 0x0 PUSH1 0x1 PUSH1 0x1 PUSH1 0xA0 SHL SUB AND SWAP1 PUSH4 0x23B872DD SWAP1 PUSH1 0x64 ADD PUSH1 0x20 PUSH1 0x40 MLOAD DUP1 DUP4 SUB DUP2 PUSH1 0x0 DUP8 GAS CALL ISZERO DUP1 ISZERO PUSH2 0x108A JUMPI RETURNDATASIZE PUSH1 0x0 DUP1 RETURNDATACOPY RETURNDATASIZE PUSH1 0x0 REVERT JUMPDEST POP POP POP POP PUSH1 0x40 MLOAD RETURNDATASIZE PUSH1 0x1F NOT PUSH1 0x1F DUP3 ADD AND DUP3 ADD DUP1 PUSH1 0x40 MSTORE POP DUP2 ADD SWAP1 PUSH2 0x10AE SWAP2 SWAP1 PUSH2 0x1624 JUMP JUMPDEST PUSH2 0x10EC JUMPI PUSH1 0x40 MLOAD PUSH3 0x461BCD PUSH1 0xE5 SHL DUP2 MSTORE PUSH1 0x20 PUSH1 0x4 DUP3 ADD MSTORE PUSH1 0xF PUSH1 0x24 DUP3 ADD MSTORE PUSH15 0x1D1C985B9CD9995C8819985A5B1959 PUSH1 0x8A SHL PUSH1 0x44 DUP3 ADD MSTORE PUSH1 0x64 ADD PUSH2 0x445 JUMP JUMPDEST PUSH1 0x5 DUP3 ADD DUP4 SWAP1 SSTORE PUSH1 0x8 DUP3 ADD DUP1 SLOAD PUSH1 0xFF PUSH1 0x40 SHL NOT AND PUSH9 0x20000000000000000 OR SWAP1 SSTORE PUSH1 0x40 MLOAD DUP4 DUP2 MSTORE DUP5 SWAP1 PUSH32 0xB6551EAB5C9E624D74922ADEEDB1651D10C9366A370E1DE2CDB25F4D19354962 SWAP1 PUSH1 0x20 ADD PUSH2 0xAAF JUMP JUMPDEST PUSH1 0x0 DUP3 DUP2 MSTORE PUSH1 0x20 DUP2 SWAP1 MSTORE PUSH1 0x40 SWAP1 KECCAK256 PUSH1 0x1 ADD SLOAD PUSH2 0x115A DUP2 PUSH2 0x124B JUMP JUMPDEST PUSH2 0x771 DUP4 DUP4 PUSH2 0x12EA JUMP JUMPDEST PUSH1 0x0 DUP1 MLOAD PUSH1 0x20 PUSH2 0x1723 DUP4 CODECOPY DUP2 MLOAD SWAP2 MSTORE PUSH2 0x117C DUP2 PUSH2 0x124B JUMP JUMPDEST PUSH1 0x0 DUP3 DUP2 MSTORE PUSH1 0x2 PUSH1 0x20 MSTORE PUSH1 0x40 SWAP1 KECCAK256 PUSH1 0x8 DUP2 ADD SLOAD PUSH8 0xFFFFFFFFFFFFFFFF AND TIMESTAMP GT DUP1 ISZERO PUSH2 0x11C7 JUMPI POP PUSH1 0x6 PUSH1 0x8 DUP3 ADD SLOAD PUSH1 0x1 PUSH1 0x40 SHL SWAP1 DIV PUSH1 0xFF AND PUSH1 0x7 DUP2 GT ISZERO PUSH2 0x11C4 JUMPI PUSH2 0x11C4 PUSH2 0x1422 JUMP JUMPDEST EQ ISZERO JUMPDEST PUSH2 0x1201 JUMPI PUSH1 0x40 MLOAD PUSH3 0x461BCD PUSH1 0xE5 SHL DUP2 MSTORE PUSH1 0x20 PUSH1 0x4 DUP3 ADD MSTORE PUSH1 0xB PUSH1 0x24 DUP3 ADD MSTORE PUSH11 0x6E6F74206F766572647565 PUSH1 0xA8 SHL PUSH1 0x44 DUP3 ADD MSTORE PUSH1 0x64 ADD PUSH2 0x445 JUMP JUMPDEST PUSH1 0x8 DUP2 ADD DUP1 SLOAD PUSH1 0xFF PUSH1 0x40 SHL NOT AND PUSH9 0x70000000000000000 OR SWAP1 SSTORE PUSH1 0x40 MLOAD DUP4 SWAP1 PUSH32 0x1D75E3348506ADF1891A585D582E37BFDD45F92284DF8A0A8A8F20E428F45C1B SWAP1 PUSH1 0x0 SWAP1 LOG2 POP POP POP JUMP JUMPDEST PUSH2 0x1255 DUP2 CALLER PUSH2 0x1355 JUMP JUMPDEST POP JUMP JUMPDEST PUSH1 0x0 PUSH2 0x1264 DUP4 DUP4 PUSH2 0xF14 JUMP JUMPDEST PUSH2 0x12E2 JUMPI PUSH1 0x0 DUP4 DUP2 MSTORE PUSH1 0x20 DUP2 DUP2 MSTORE PUSH1 0x40 DUP1 DUP4 KECCAK256 PUSH1 0x1 PUSH1 0x1 PUSH1 0xA0 SHL SUB DUP7 AND DUP5 MSTORE SWAP1 SWAP2 MSTORE SWAP1 KECCAK256 DUP1 SLOAD PUSH1 0xFF NOT AND PUSH1 0x1 OR SWAP1 SSTORE PUSH2 0x129A CALLER SWAP1 JUMP JUMPDEST PUSH1 0x1 PUSH1 0x1 PUSH1 0xA0 SHL SUB AND DUP3 PUSH1 0x1 PUSH1 0x1 PUSH1 0xA0 SHL SUB AND DUP5 PUSH32 0x2F8788117E7EFF1D82E926EC794901D17C78024A50270940304540A733656F0D PUSH1 0x40 MLOAD PUSH1 0x40 MLOAD DUP1 SWAP2 SUB SWAP1 LOG4 POP PUSH1 0x1 PUSH2 0x3AF JUMP JUMPDEST POP PUSH1 0x0 PUSH2 0x3AF JUMP JUMPDEST PUSH1 0x0 PUSH2 0x12F6 DUP4 DUP4 PUSH2 0xF14 JUMP JUMPDEST ISZERO PUSH2 0x12E2 JUMPI PUSH1 0x0 DUP4 DUP2 MSTORE PUSH1 0x20 DUP2 DUP2 MSTORE PUSH1 0x40 DUP1 DUP4 KECCAK256 PUSH1 0x1 PUSH1 0x1 PUSH1 0xA0 SHL SUB DUP7 AND DUP1 DUP6 MSTORE SWAP3 MSTORE DUP1 DUP4 KECCAK256 DUP1 SLOAD PUSH1 0xFF NOT AND SWAP1 SSTORE MLOAD CALLER SWAP3 DUP7 SWAP2 PUSH32 0xF6391F5C32D9C69D2A47EA670B442974B53935D1EDC7FD64EB21E047A839171B SWAP2 SWAP1 LOG4 POP PUSH1 0x1 PUSH2 0x3AF JUMP JUMPDEST PUSH2 0x135F DUP3 DUP3 PUSH2 0xF14 JUMP JUMPDEST PUSH2 0x138E JUMPI PUSH1 0x40 MLOAD PUSH4 0xE2517D3F PUSH1 0xE0 SHL DUP2 MSTORE PUSH1 0x1 PUSH1 0x1 PUSH1 0xA0 SHL SUB DUP3 AND PUSH1 0x4 DUP3 ADD MSTORE PUSH1 0x24 DUP2 ADD DUP4 SWAP1 MSTORE PUSH1 0x44 ADD PUSH2 0x445 JUMP JUMPDEST POP POP JUMP JUMPDEST PUSH1 0x0 PUSH1 0x20 DUP3 DUP5 SUB SLT ISZERO PUSH2 0x13A4 JUMPI PUSH1 0x0 DUP1 REVERT JUMPDEST DUP2 CALLDATALOAD PUSH1 0x1 PUSH1 0x1 PUSH1 0xE0 SHL SUB NOT DUP2 AND DUP2 EQ PUSH2 0x13BC JUMPI PUSH1 0x0 DUP1 REVERT JUMPDEST SWAP4 SWAP3 POP POP POP JUMP JUMPDEST PUSH1 0x0 DUP1 PUSH1 0x0 PUSH1 0x60 DUP5 DUP7 SUB SLT ISZERO PUSH2 0x13D8 JUMPI PUSH1 0x0 DUP1 REVERT JUMPDEST DUP4 CALLDATALOAD SWAP3 POP PUSH1 0x20 DUP5 ADD CALLDATALOAD SWAP2 POP PUSH1 0x40 DUP5 ADD CALLDATALOAD PUSH8 0xFFFFFFFFFFFFFFFF DUP2 AND DUP2 EQ PUSH2 0x13FE JUMPI PUSH1 0x0 DUP1 REVERT JUMPDEST DUP1 SWAP2 POP POP SWAP3 POP SWAP3 POP SWAP3 JUMP JUMPDEST PUSH1 0x0 PUSH1 0x20 DUP3 DUP5 SUB SLT ISZERO PUSH2 0x141B JUMPI PUSH1 0x0 DUP1 REVERT JUMPDEST POP CALLDATALOAD SWAP2 SWAP1 POP JUMP JUMPDEST PUSH4 0x4E487B71 PUSH1 0xE0 SHL PUSH1 0x0 MSTORE PUSH1 0x21 PUSH1 0x4 MSTORE PUSH1 0x24 PUSH1 0x0 REVERT JUMPDEST PUSH1 0x1 PUSH1 0x1 PUSH1 0xA0 SHL SUB DUP13 DUP2 AND DUP3 MSTORE DUP12 DUP2 AND PUSH1 0x20 DUP4 ADD MSTORE DUP11 AND PUSH1 0x40 DUP3 ADD MSTORE PUSH1 0x60 DUP2 ADD DUP10 SWAP1 MSTORE PUSH2 0xFFFF DUP9 DUP2 AND PUSH1 0x80 DUP4 ADD MSTORE DUP8 AND PUSH1 0xA0 DUP3 ADD MSTORE PUSH1 0xC0 DUP2 ADD DUP7 SWAP1 MSTORE PUSH1 0xE0 DUP2 ADD DUP6 SWAP1 MSTORE PUSH2 0x100 DUP2 ADD DUP5 SWAP1 MSTORE PUSH8 0xFFFFFFFFFFFFFFFF DUP4 AND PUSH2 0x120 DUP3 ADD MSTORE PUSH2 0x160 DUP2 ADD PUSH1 0x8 DUP4 LT PUSH2 0x14B7 JUMPI PUSH4 0x4E487B71 PUSH1 0xE0 SHL PUSH1 0x0 MSTORE PUSH1 0x21 PUSH1 0x4 MSTORE PUSH1 0x24 PUSH1 0x0 REVERT JUMPDEST DUP3 PUSH2 0x140 DUP4 ADD MSTORE SWAP13 SWAP12 POP POP POP POP POP POP POP POP POP POP POP POP JUMP JUMPDEST DUP1 CALLDATALOAD PUSH1 0x1 PUSH1 0x1 PUSH1 0xA0 SHL SUB DUP2 AND DUP2 EQ PUSH2 0x14E5 JUMPI PUSH1 0x0 DUP1 REVERT JUMPDEST SWAP2 SWAP1 POP JUMP JUMPDEST PUSH1 0x0 DUP1 PUSH1 0x40 DUP4 DUP6 SUB SLT ISZERO PUSH2 0x14FD JUMPI PUSH1 0x0 DUP1 REVERT JUMPDEST DUP3 CALLDATALOAD SWAP2 POP PUSH2 0x150D PUSH1 0x20 DUP5 ADD PUSH2 0x14CE JUMP JUMPDEST SWAP1 POP SWAP3 POP SWAP3 SWAP1 POP JUMP JUMPDEST PUSH1 0x0 DUP1 PUSH1 0x40 DUP4 DUP6 SUB SLT ISZERO PUSH2 0x1529 JUMPI PUSH1 0x0 DUP1 REVERT JUMPDEST POP POP DUP1 CALLDATALOAD SWAP3 PUSH1 0x20 SWAP1 SWAP2 ADD CALLDATALOAD SWAP2 POP JUMP JUMPDEST DUP1 CALLDATALOAD PUSH2 0xFFFF DUP2 AND DUP2 EQ PUSH2 0x14E5 JUMPI PUSH1 0x0 DUP1 REVERT JUMPDEST PUSH1 0x0 DUP1 PUSH1 0x0 DUP1 PUSH1 0x0 PUSH1 0xA0 DUP7 DUP9 SUB SLT ISZERO PUSH2 0x1562 JUMPI PUSH1 0x0 DUP1 REVERT JUMPDEST PUSH2 0x156B DUP7 PUSH2 0x14CE JUMP JUMPDEST SWAP5 POP PUSH2 0x1579 PUSH1 0x20 DUP8 ADD PUSH2 0x14CE JUMP JUMPDEST SWAP4 POP PUSH1 0x40 DUP7 ADD CALLDATALOAD SWAP3 POP PUSH2 0x158E PUSH1 0x60 DUP8 ADD PUSH2 0x1538 JUMP JUMPDEST SWAP2 POP PUSH2 0x159C PUSH1 0x80 DUP8 ADD PUSH2 0x1538 JUMP JUMPDEST SWAP1 POP SWAP3 SWAP6 POP SWAP3 SWAP6 SWAP1 SWAP4 POP JUMP JUMPDEST PUSH1 0x0 DUP1 PUSH1 0x0 PUSH1 0x40 DUP5 DUP7 SUB SLT ISZERO PUSH2 0x15BD JUMPI PUSH1 0x0 DUP1 REVERT JUMPDEST DUP4 CALLDATALOAD SWAP3 POP PUSH1 0x20 DUP5 ADD CALLDATALOAD PUSH8 0xFFFFFFFFFFFFFFFF DUP1 DUP3 GT ISZERO PUSH2 0x15DC JUMPI PUSH1 0x0 DUP1 REVERT JUMPDEST DUP2 DUP7 ADD SWAP2 POP DUP7 PUSH1 0x1F DUP4 ADD SLT PUSH2 0x15F0 JUMPI PUSH1 0x0 DUP1 REVERT JUMPDEST DUP2 CALLDATALOAD DUP2 DUP2 GT ISZERO PUSH2 0x15FF JUMPI PUSH1 0x0 DUP1 REVERT JUMPDEST DUP8 PUSH1 0x20 DUP3 DUP6 ADD ADD GT ISZERO PUSH2 0x1611 JUMPI PUSH1 0x0 DUP1 REVERT JUMPDEST PUSH1 0x20 DUP4 ADD SWAP5 POP DUP1 SWAP4 POP POP POP POP SWAP3 POP SWAP3 POP SWAP3 JUMP JUMPDEST PUSH1 0x0 PUSH1 0x20 DUP3 DUP5 SUB SLT ISZERO PUSH2 0x1636 JUMPI PUSH1 0x0 DUP1 REVERT JUMPDEST DUP2 MLOAD DUP1 ISZERO ISZERO DUP2 EQ PUSH2 0x13BC JUMPI PUSH1 0x0 DUP1 REVERT JUMPDEST PUSH4 0x4E487B71 PUSH1 0xE0 SHL PUSH1 0x0 MSTORE PUSH1 0x11 PUSH1 0x4 MSTORE PUSH1 0x24 PUSH1 0x0 REVERT JUMPDEST DUP1 DUP3 MUL DUP2 ISZERO DUP3 DUP3 DIV DUP5 EQ OR PUSH2 0x3AF JUMPI PUSH2 0x3AF PUSH2 0x1646 JUMP JUMPDEST PUSH1 0x0 DUP3 PUSH2 0x1690 JUMPI PUSH4 0x4E487B71 PUSH1 0xE0 SHL PUSH1 0x0 MSTORE PUSH1 0x12 PUSH1 0x4 MSTORE PUSH1 0x24 PUSH1 0x0 REVERT JUMPDEST POP DIV SWAP1 JUMP JUMPDEST PUSH1 0x0 DUP3 MLOAD PUSH1 0x0 JUMPDEST DUP2 DUP2 LT ISZERO PUSH2 0x16B6 JUMPI PUSH1 0x20 DUP2 DUP7 ADD DUP2 ADD MLOAD DUP6 DUP4 ADD MSTORE ADD PUSH2 0x169C JUMP JUMPDEST POP PUSH1 0x0 SWAP3 ADD SWAP2 DUP3 MSTORE POP SWAP2 SWAP1 POP JUMP JUMPDEST DUP1 DUP3 ADD DUP1 DUP3 GT ISZERO PUSH2 0x3AF JUMPI PUSH2 0x3AF PUSH2 0x1646 JUMP JUMPDEST PUSH2 0xFFFF DUP2 DUP2 AND DUP4 DUP3 AND ADD SWAP1 DUP1 DUP3 GT ISZERO PUSH2 0x16F2 JUMPI PUSH2 0x16F2 PUSH2 0x1646 JUMP JUMPDEST POP SWAP3 SWAP2 POP POP JUMP JUMPDEST PUSH1 0x0 PUSH1 0x1 DUP3 ADD PUSH2 0x170B JUMPI PUSH2 0x170B PUSH2 0x1646 JUMP JUMPDEST POP PUSH1 0x1 ADD SWAP1 JUMP JUMPDEST DUP2 DUP4 DUP3 CALLDATACOPY PUSH1 0x0 SWAP2 ADD SWAP1 DUP2 MSTORE SWAP2 SWAP1 POP JUMP INVALID LOG4 SWAP9 SMOD KECCAK256 0x5C 0xE4 0xD3 SSTORE MULMOD 0x2E CREATE2 0xA8 LOG1 DUP16 JUMP 0xE8 SWAP2 EXTCODECOPY DELEGATECALL LOG2 ADD 0xFB 0xE2 DUP8 DUP3 JUMPDEST MULMOD JUMP SWAP4 0xC2 OR PUSH22 0xA2646970667358221220F0AF409FBF671FAACF7ECFDF 0xA7 0xDA 0xB8 CODESIZE PUSH22 0x75AEBBB9B262AABA867594C7B187EE64736F6C634300 ADDMOD EQ STOP CALLER "},"methodIdentifiers":{"ADMIN_ROLE()":"75b238fc","DEFAULT_ADMIN_ROLE()":"a217fddf","TGT()":"fcbc56f4","acceptDocsAndIssueKey(uint256,bytes32,uint64)":"167dbaaf","buyerDeposit(uint256,uint256)":"cc980bc2","claimDocs(uint256,string)":"858989a3","createTrade(address,address,uint256,uint16,uint16)":"7bad12d5","getRoleAdmin(bytes32)":"248a9ca3","grantRole(bytes32,address)":"2f2ff15d","hasRole(bytes32,address)":"91d14854","markDefault(uint256)":"e1d927c8","nextTradeId()":"813ad083","payFinal(uint256,uint256)":"396c7985","renounceRole(bytes32,address)":"36568abe","revokeRole(bytes32,address)":"d547741f","setDownstream(uint256,address)":"28ff1057","supportsInterface(bytes4)":"01ffc9a7","trades(uint256)":"1e6c598e","treasury()":"61d027b3"}}}}}