{
  "_format": "hh-sol-artifact-1",
  "contractName": "TGT",
  "sourceName": "contracts/TGT.sol",
  "abi": [
    {
      "inputs": [],
      "stateMutability": "nonpayable",
      "type": "constructor"
    },
    {
      "inputs": [],
      "name": "AccessControlBadConfirmation",
      "type": "error"
    },
    {
      "inputs": [
        {
          "internalType": "address",
          "name": "account",
          "type": "address"
        },
        {
          "internalType": "bytes32",
          "name": "neededRole",
          "type": "bytes32"
        }
      ],
      "name": "AccessControlUnauthorizedAccount",
      "type": "error"
    },
    {
      "inputs": [
        {
          "internalType": "address",
          "name": "spender",
          "type": "address"
        },
        {
          "internalType": "uint256",
          "name": "allowance",
          "type": "uint256"
        },
        {
          "internalType": "uint256",
          "name": "needed",
          "type": "uint256"
        }
      ],
      "name": "ERC20InsufficientAllowance",
      "type": "error"
    },
    {
      "inputs": [
        {
          "internalType": "address",
          "name": "sender",
          "type": "address"
        },
        {
          "internalType": "uint256",
          "name": "balance",
          "type": "uint256"
        },
        {
          "internalType": "uint256",
          "name": "needed",
          "type": "uint256"
        }
      ],
      "name": "ERC20InsufficientBalance",
      "type": "error"
    },
    {
      "inputs": [
        {
          "internalType": "address",
          "name": "approver",
          "type": "address"
        }
      ],
      "name": "ERC20InvalidApprover",
      "type": "error"
    },
    {
      "inputs": [
        {
          "internalType": "address",
          "name": "receiver",
          "type": "address"
        }
      ],
      "name": "ERC20InvalidReceiver",
      "type": "error"
    },
    {
      "inputs": [
        {
          "internalType": "address",
          "name": "sender",
          "type": "address"
        }
      ],
      "name": "ERC20InvalidSender",
      "type": "error"
    },
    {
      "inputs": [
        {
          "internalType": "address",
          "name": "spender",
          "type": "address"
        }
      ],
      "name": "ERC20InvalidSpender",
      "type": "error"
    },
    {
      "inputs": [],
      "name": "EnforcedPause",
      "type": "error"
    },
    {
      "inputs": [],
      "name": "ExpectedPause",
      "type": "error"
    },
    {
      "anonymous": false,
      "inputs": [
        {
          "indexed": true,
          "internalType": "address",
          "name": "owner",
          "type": "address"
        },
        {
          "indexed": true,
          "internalType": "address",
          "name": "spender",
          "type": "address"
        },
        {
          "indexed": false,
          "internalType": "uint256",
          "name": "value",
          "type": "uint256"
        }
      ],
      "name": "Approval",
      "type": "event"
    },
    {
      "anonymous": false,
      "inputs": [
        {
          "indexed": false,
          "internalType": "address",
          "name": "account",
          "type": "address"
        }
      ],
      "name": "Paused",
      "type": "event"
    },
    {
      "anonymous": false,
      "inputs": [
        {
          "indexed": true,
          "internalType": "bytes32",
          "name": "role",
          "type": "bytes32"
        },
        {
          "indexed": true,
          "internalType": "bytes32",
          "name": "previousAdminRole",
          "type": "bytes32"
        },
        {
          "indexed": true,
          "internalType": "bytes32",
          "name": "newAdminRole",
          "type": "bytes32"
        }
      ],
      "name": "RoleAdminChanged",
      "type": "event"
    },
    {
      "anonymous": false,
      "inputs": [
        {
          "indexed": true,
          "internalType": "bytes32",
          "name": "role",
          "type": "bytes32"
        },
        {
          "indexed": true,
          "internalType": "address",
          "name": "account",
          "type": "address"
        },
        {
          "indexed": true,
          "internalType": "address",
          "name": "sender",
          "type": "address"
        }
      ],
      "name": "RoleGranted",
      "type": "event"
    },
    {
      "anonymous": false,
      "inputs": [
        {
          "indexed": true,
          "internalType": "bytes32",
          "name": "role",
          "type": "bytes32"
        },
        {
          "indexed": true,
          "internalType": "address",
          "name": "account",
          "type": "address"
        },
        {
          "indexed": true,
          "internalType": "address",
          "name": "sender",
          "type": "address"
        }
      ],
      "name": "RoleRevoked",
      "type": "event"
    },
    {
      "anonymous": false,
      "inputs": [
        {
          "indexed": true,
          "internalType": "address",
          "name": "from",
          "type": "address"
        },
        {
          "indexed": true,
          "internalType": "address",
          "name": "to",
          "type": "address"
        },
        {
          "indexed": false,
          "internalType": "uint256",
          "name": "value",
          "type": "uint256"
        }
      ],
      "name": "Transfer",
      "type": "event"
    },
    {
      "anonymous": false,
      "inputs": [
        {
          "indexed": false,
          "internalType": "address",
          "name": "account",
          "type": "address"
        }
      ],
      "name": "Unpaused",
      "type": "event"
    },
    {
      "inputs": [],
      "name": "DEFAULT_ADMIN_ROLE",
      "outputs": [
        {
          "internalType": "bytes32",
          "name": "",
          "type": "bytes32"
        }
      ],
      "stateMutability": "view",
      "type": "function"
    },
    {
      "inputs": [],
      "name": "MINTER_ROLE",
      "outputs": [
        {
          "internalType": "bytes32",
          "name": "",
          "type": "bytes32"
        }
      ],
      "stateMutability": "view",
      "type": "function"
    },
    {
      "inputs": [],
      "name": "PAUSER_ROLE",
      "outputs": [
        {
          "internalType": "bytes32",
          "name": "",
          "type": "bytes32"
        }
      ],
      "stateMutability": "view",
      "type": "function"
    },
    {
      "inputs": [
        {
          "internalType": "address",
          "name": "owner",
          "type": "address"
        },
        {
          "internalType": "address",
          "name": "spender",
          "type": "address"
        }
      ],
      "name": "allowance",
      "outputs": [
        {
          "internalType": "uint256",
          "name": "",
          "type": "uint256"
        }
      ],
      "stateMutability": "view",
      "type": "function"
    },
    {
      "inputs": [
        {
          "internalType": "address",
          "name": "spender",
          "type": "address"
        },
        {
          "internalType": "uint256",
          "name": "value",
          "type": "uint256"
        }
      ],
      "name": "approve",
      "outputs": [
        {
          "internalType": "bool",
          "name": "",
          "type": "bool"
        }
      ],
      "stateMutability": "nonpayable",
      "type": "function"
    },
    {
      "inputs": [
        {
          "internalType": "address",
          "name": "account",
          "type": "address"
        }
      ],
      "name": "balanceOf",
      "outputs": [
        {
          "internalType": "uint256",
          "name": "",
          "type": "uint256"
        }
      ],
      "stateMutability": "view",
      "type": "function"
    },
    {
      "inputs": [
        {
          "internalType": "uint256",
          "name": "amount",
          "type": "uint256"
        }
      ],
      "name": "burn",
      "outputs": [],
      "stateMutability": "nonpayable",
      "type": "function"
    },
    {
      "inputs": [],
      "name": "decimals",
      "outputs": [
        {
          "internalType": "uint8",
          "name": "",
          "type": "uint8"
        }
      ],
      "stateMutability": "view",
      "type": "function"
    },
    {
      "inputs": [
        {
          "internalType": "bytes32",
          "name": "role",
          "type": "bytes32"
        }
      ],
      "name": "getRoleAdmin",
      "outputs": [
        {
          "internalType": "bytes32",
          "name": "",
          "type": "bytes32"
        }
      ],
      "stateMutability": "view",
      "type": "function"
    },
    {
      "inputs": [
        {
          "internalType": "bytes32",
          "name": "role",
          "type": "bytes32"
        },
        {
          "internalType": "address",
          "name": "account",
          "type": "address"
        }
      ],
      "name": "grantRole",
      "outputs": [],
      "stateMutability": "nonpayable",
      "type": "function"
    },
    {
      "inputs": [
        {
          "internalType": "bytes32",
          "name": "role",
          "type": "bytes32"
        },
        {
          "internalType": "address",
          "name": "account",
          "type": "address"
        }
      ],
      "name": "hasRole",
      "outputs": [
        {
          "internalType": "bool",
          "name": "",
          "type": "bool"
        }
      ],
      "stateMutability": "view",
      "type": "function"
    },
    {
      "inputs": [
        {
          "internalType": "address",
          "name": "to",
          "type": "address"
        },
        {
          "internalType": "uint256",
          "name": "amount",
          "type": "uint256"
        }
      ],
      "name": "mint",
      "outputs": [],
      "stateMutability": "nonpayable",
      "type": "function"
    },
    {
      "inputs": [],
      "name": "name",
      "outputs": [
        {
          "internalType": "string",
          "name": "",
          "type": "string"
        }
      ],
      "stateMutability": "view",
      "type": "function"
    },
    {
      "inputs": [],
      "name": "pause",
      "outputs": [],
      "stateMutability": "nonpayable",
      "type": "function"
    },
    {
      "inputs": [],
      "name": "paused",
      "outputs": [
        {
          "internalType": "bool",
          "name": "",
          "type": "bool"
        }
      ],
      "stateMutability": "view",
      "type": "function"
    },
    {
      "inputs": [
        {
          "internalType": "bytes32",
          "name": "role",
          "type": "bytes32"
        },
        {
          "internalType": "address",
          "name": "callerConfirmation",
          "type": "address"
        }
      ],
      "name": "renounceRole",
      "outputs": [],
      "stateMutability": "nonpayable",
      "type": "function"
    },
    {
      "inputs": [
        {
          "internalType": "bytes32",
          "name": "role",
          "type": "bytes32"
        },
        {
          "internalType": "address",
          "name": "account",
          "type": "address"
        }
      ],
      "name": "revokeRole",
      "outputs": [],
      "stateMutability": "nonpayable",
      "type": "function"
    },
    {
      "inputs": [
        {
          "internalType": "bytes4",
          "name": "interfaceId",
          "type": "bytes4"
        }
      ],
      "name": "supportsInterface",
      "outputs": [
        {
          "internalType": "bool",
          "name": "",
          "type": "bool"
        }
      ],
      "stateMutability": "view",
      "type": "function"
    },
    {
      "inputs": [],
      "name": "symbol",
      "outputs": [
        {
          "internalType": "string",
          "name": "",
          "type": "string"
        }
      ],
      "stateMutability": "view",
      "type": "function"
    },
    {
      "inputs": [],
      "name": "totalSupply",
      "outputs": [
        {
          "internalType": "uint256",
          "name": "",
          "type": "uint256"
        }
      ],
      "stateMutability": "view",
      "type": "function"
    },
    {
      "inputs": [
        {
          "internalType": "address",
          "name": "to",
          "type": "address"
        },
        {
          "internalType": "uint256",
          "name": "value",
          "type": "uint256"
        }
      ],
      "name": "transfer",
      "outputs": [
        {
          "internalType": "bool",
          "name": "",
          "type": "bool"
        }
      ],
      "stateMutability": "nonpayable",
      "type": "function"
    },
    {
      "inputs": [
        {
          "internalType": "address",
          "name": "from",
          "type": "address"
        },
        {
          "internalType": "address",
          "name": "to",
          "type": "address"
        },
        {
          "internalType": "uint256",
          "name": "value",
          "type": "uint256"
        }
      ],
      "name": "transferFrom",
      "outputs": [
        {
          "internalType": "bool",
          "name": "",
          "type": "bool"
        }
      ],
      "stateMutability": "nonpayable",
      "type": "function"
    },
    {
      "inputs": [],
      "name": "unpause",
      "outputs": [],
      "stateMutability": "nonpayable",
      "type": "function"
    }
  ],
  "bytecode": "0x60806040523480156200001157600080fd5b506040518060400160405280600d81526020016c2a30b733b2b73a102a37b5b2b760991b815250604051806040016040528060038152602001621511d560ea1b81525081600390816200006591906200023f565b5060046200007482826200023f565b506200008691506000905033620000e7565b50620000b37f9f2df0fed2c77648de5860a4cc508cd0818c85b8b8a1ab4ceeef8d981c8956a633620000e7565b50620000e07f65d7a28e3265b37a6474929f336521b332c1681b933f6cb9f3376673440d862a33620000e7565b506200030b565b60008281526005602090815260408083206001600160a01b038516845290915281205460ff16620001905760008381526005602090815260408083206001600160a01b03861684529091529020805460ff19166001179055620001473390565b6001600160a01b0316826001600160a01b0316847f2f8788117e7eff1d82e926ec794901d17c78024a50270940304540a733656f0d60405160405180910390a450600162000194565b5060005b92915050565b634e487b7160e01b600052604160045260246000fd5b600181811c90821680620001c557607f821691505b602082108103620001e657634e487b7160e01b600052602260045260246000fd5b50919050565b601f8211156200023a57600081815260208120601f850160051c81016020861015620002155750805b601f850160051c820191505b81811015620002365782815560010162000221565b5050505b505050565b81516001600160401b038111156200025b576200025b6200019a565b62000273816200026c8454620001b0565b84620001ec565b602080601f831160018114620002ab5760008415620002925750858301515b600019600386901b1c1916600185901b17855562000236565b600085815260208120601f198616915b82811015620002dc57888601518255948401946001909101908401620002bb565b5085821015620002fb5787850151600019600388901b60f8161c191681555b5050505050600190811b01905550565b610d79806200031b6000396000f3fe608060405234801561001057600080fd5b506004361061014d5760003560e01c806342966c68116100c3578063a217fddf1161007c578063a217fddf146102a6578063a9059cbb146102ae578063d5391393146102c1578063d547741f146102e8578063dd62ed3e146102fb578063e63ab1e91461033457600080fd5b806342966c681461023c5780635c975abb1461024f57806370a082311461025a5780638456cb591461028357806391d148541461028b57806395d89b411461029e57600080fd5b8063248a9ca311610115578063248a9ca3146101c75780632f2ff15d146101ea578063313ce567146101ff57806336568abe1461020e5780633f4ba83a1461022157806340c10f191461022957600080fd5b806301ffc9a71461015257806306fdde031461017a578063095ea7b31461018f57806318160ddd146101a257806323b872dd146101b4575b600080fd5b610165610160366004610b5d565b61035b565b60405190151581526020015b60405180910390f35b610182610392565b6040516101719190610b8e565b61016561019d366004610bf8565b610424565b6002545b604051908152602001610171565b6101656101c2366004610c22565b61043c565b6101a66101d5366004610c5e565b60009081526005602052604090206001015490565b6101fd6101f8366004610c77565b610460565b005b60405160128152602001610171565b6101fd61021c366004610c77565b61048b565b6101fd6104c3565b6101fd610237366004610bf8565b6104f8565b6101fd61024a366004610c5e565b61052c565b60065460ff16610165565b6101a6610268366004610ca3565b6001600160a01b031660009081526020819052604090205490565b6101fd610536565b610165610299366004610c77565b610568565b610182610593565b6101a6600081565b6101656102bc366004610bf8565b6105a2565b6101a67f9f2df0fed2c77648de5860a4cc508cd0818c85b8b8a1ab4ceeef8d981c8956a681565b6101fd6102f6366004610c77565b6105b0565b6101a6610309366004610cbe565b6001600160a01b03918216600090815260016020908152604080832093909416825291909152205490565b6101a67f65d7a28e3265b37a6474929f336521b332c1681b933f6cb9f3376673440d862a81565b60006001600160e01b03198216637965db0b60e01b148061038c57506301ffc9a760e01b6001600160e01b03198316145b92915050565b6060600380546103a190610ce8565b80601f01602080910402602001604051908101604052809291908181526020018280546103cd90610ce8565b801561041a5780601f106103ef5761010080835404028352916020019161041a565b820191906000526020600020905b8154815290600101906020018083116103fd57829003601f168201915b5050505050905090565b6000336104328185856105d5565b5060019392505050565b60003361044a8582856105e2565b610455858585610660565b506001949350505050565b60008281526005602052604090206001015461047b816106bf565b61048583836106c9565b50505050565b6001600160a01b03811633146104b45760405163334bd91960e11b815260040160405180910390fd5b6104be828261075d565b505050565b7f65d7a28e3265b37a6474929f336521b332c1681b933f6cb9f3376673440d862a6104ed816106bf565b6104f56107ca565b50565b7f9f2df0fed2c77648de5860a4cc508cd0818c85b8b8a1ab4ceeef8d981c8956a6610522816106bf565b6104be838361081c565b6104f53382610856565b7f65d7a28e3265b37a6474929f336521b332c1681b933f6cb9f3376673440d862a610560816106bf565b6104f561088c565b60009182526005602090815260408084206001600160a01b0393909316845291905290205460ff1690565b6060600480546103a190610ce8565b600033610432818585610660565b6000828152600560205260409020600101546105cb816106bf565b610485838361075d565b6104be83838360016108c9565b6001600160a01b03838116600090815260016020908152604080832093861683529290522054600019811015610485578181101561065157604051637dc7a0d960e11b81526001600160a01b038416600482015260248101829052604481018390526064015b60405180910390fd5b610485848484840360006108c9565b6001600160a01b03831661068a57604051634b637e8f60e11b815260006004820152602401610648565b6001600160a01b0382166106b45760405163ec442f0560e01b815260006004820152602401610648565b6104be83838361099e565b6104f581336109b1565b60006106d58383610568565b6107555760008381526005602090815260408083206001600160a01b03861684529091529020805460ff1916600117905561070d3390565b6001600160a01b0316826001600160a01b0316847f2f8788117e7eff1d82e926ec794901d17c78024a50270940304540a733656f0d60405160405180910390a450600161038c565b50600061038c565b60006107698383610568565b156107555760008381526005602090815260408083206001600160a01b0386168085529252808320805460ff1916905551339286917ff6391f5c32d9c69d2a47ea670b442974b53935d1edc7fd64eb21e047a839171b9190a450600161038c565b6107d26109ea565b6006805460ff191690557f5db9ee0a495bf2e6ff9c91a7834c1ba4fdd244a5e8aa4e537bd38aeae4b073aa335b6040516001600160a01b03909116815260200160405180910390a1565b6001600160a01b0382166108465760405163ec442f0560e01b815260006004820152602401610648565b6108526000838361099e565b5050565b6001600160a01b03821661088057604051634b637e8f60e11b815260006004820152602401610648565b6108528260008361099e565b610894610a0f565b6006805460ff191660011790557f62e78cea01bee320cd4e420270b5ea74000d11b0c9f74754ebdbfc544b05a2586107ff3390565b6001600160a01b0384166108f35760405163e602df0560e01b815260006004820152602401610648565b6001600160a01b03831661091d57604051634a1406b160e11b815260006004820152602401610648565b6001600160a01b038085166000908152600160209081526040808320938716835292905220829055801561048557826001600160a01b0316846001600160a01b03167f8c5be1e5ebec7d5bd14f71427d1e84f3dd0314c0f7b2291e5b200ac8c7c3b9258460405161099091815260200190565b60405180910390a350505050565b6109a6610a0f565b6104be838383610a33565b6109bb8282610568565b6108525760405163e2517d3f60e01b81526001600160a01b038216600482015260248101839052604401610648565b60065460ff16610a0d57604051638dfc202b60e01b815260040160405180910390fd5b565b60065460ff1615610a0d5760405163d93c066560e01b815260040160405180910390fd5b6001600160a01b038316610a5e578060026000828254610a539190610d22565b90915550610ad09050565b6001600160a01b03831660009081526020819052604090205481811015610ab15760405163391434e360e21b81526001600160a01b03851660048201526024810182905260448101839052606401610648565b6001600160a01b03841660009081526020819052604090209082900390555b6001600160a01b038216610aec57600280548290039055610b0b565b6001600160a01b03821660009081526020819052604090208054820190555b816001600160a01b0316836001600160a01b03167fddf252ad1be2c89b69c2b068fc378daa952ba7f163c4a11628f55a4df523b3ef83604051610b5091815260200190565b60405180910390a3505050565b600060208284031215610b6f57600080fd5b81356001600160e01b031981168114610b8757600080fd5b9392505050565b600060208083528351808285015260005b81811015610bbb57858101830151858201604001528201610b9f565b506000604082860101526040601f19601f8301168501019250505092915050565b80356001600160a01b0381168114610bf357600080fd5b919050565b60008060408385031215610c0b57600080fd5b610c1483610bdc565b946020939093013593505050565b600080600060608486031215610c3757600080fd5b610c4084610bdc565b9250610c4e60208501610bdc565b9150604084013590509250925092565b600060208284031215610c7057600080fd5b5035919050565b60008060408385031215610c8a57600080fd5b82359150610c9a60208401610bdc565b90509250929050565b600060208284031215610cb557600080fd5b610b8782610bdc565b60008060408385031215610cd157600080fd5b610cda83610bdc565b9150610c9a60208401610bdc565b600181811c90821680610cfc57607f821691505b602082108103610d1c57634e487b7160e01b600052602260045260246000fd5b50919050565b8082018082111561038c57634e487b7160e01b600052601160045260246000fdfea2646970667358221220c76b7e20844319bf5d817a9cff36c48cf17eacccec9279a25203d2ea605db61a64736f6c63430008140033",
  "linkReferences": {},
  "deployedLinkReferences": {}
}